{
  "_format": "hh-sol-artifact-1",
  "contractName": "MDao3NFTMarket",
  "sourceName": "contracts/MDao3NFTMarket.sol",
  "abi": [
    {
      "inputs": [
        {
          "internalType": "address",
          "name": "_adminAddress",
          "type": "address"
        },
        {
          "internalType": "address",
          "name": "_treasuryAddress",
          "type": "address"
        },
        {
          "internalType": "address",
          "name": "_WBNBAddress",
          "type": "address"
        },
        {
          "internalType": "uint256",
          "name": "_minimumAskPrice",
          "type": "uint256"
        },
        {
          "internalType": "uint256",
          "name": "_maximumAskPrice",
          "type": "uint256"
        }
      ],
      "stateMutability": "nonpayable",
      "type": "constructor"
    },
    {
      "anonymous": false,
      "inputs": [
        {
          "indexed": true,
          "internalType": "address",
          "name": "collection",
          "type": "address"
        },
        {
          "indexed": true,
          "internalType": "address",
          "name": "seller",
          "type": "address"
        },
        {
          "indexed": true,
          "internalType": "uint256",
          "name": "tokenId",
          "type": "uint256"
        }
      ],
      "name": "AskCancel",
      "type": "event"
    },
    {
      "anonymous": false,
      "inputs": [
        {
          "indexed": true,
          "internalType": "address",
          "name": "collection",
          "type": "address"
        },
        {
          "indexed": true,
          "internalType": "address",
          "name": "seller",
          "type": "address"
        },
        {
          "indexed": true,
          "internalType": "uint256",
          "name": "tokenId",
          "type": "uint256"
        },
        {
          "indexed": false,
          "internalType": "uint256",
          "name": "askPrice",
          "type": "uint256"
        }
      ],
      "name": "AskNew",
      "type": "event"
    },
    {
      "anonymous": false,
      "inputs": [
        {
          "indexed": true,
          "internalType": "address",
          "name": "collection",
          "type": "address"
        },
        {
          "indexed": true,
          "internalType": "address",
          "name": "seller",
          "type": "address"
        },
        {
          "indexed": true,
          "internalType": "uint256",
          "name": "tokenId",
          "type": "uint256"
        },
        {
          "indexed": false,
          "internalType": "uint256",
          "name": "askPrice",
          "type": "uint256"
        }
      ],
      "name": "AskUpdate",
      "type": "event"
    },
    {
      "anonymous": false,
      "inputs": [
        {
          "indexed": true,
          "internalType": "address",
          "name": "collection",
          "type": "address"
        }
      ],
      "name": "CollectionClose",
      "type": "event"
    },
    {
      "anonymous": false,
      "inputs": [
        {
          "indexed": true,
          "internalType": "address",
          "name": "collection",
          "type": "address"
        },
        {
          "indexed": true,
          "internalType": "address",
          "name": "creator",
          "type": "address"
        },
        {
          "indexed": true,
          "internalType": "address",
          "name": "whitelistChecker",
          "type": "address"
        },
        {
          "indexed": false,
          "internalType": "uint256",
          "name": "tradingFee",
          "type": "uint256"
        },
        {
          "indexed": false,
          "internalType": "uint256",
          "name": "creatorFee",
          "type": "uint256"
        }
      ],
      "name": "CollectionNew",
      "type": "event"
    },
    {
      "anonymous": false,
      "inputs": [
        {
          "indexed": true,
          "internalType": "address",
          "name": "collection",
          "type": "address"
        },
        {
          "indexed": true,
          "internalType": "address",
          "name": "creator",
          "type": "address"
        },
        {
          "indexed": true,
          "internalType": "address",
          "name": "whitelistChecker",
          "type": "address"
        },
        {
          "indexed": false,
          "internalType": "uint256",
          "name": "tradingFee",
          "type": "uint256"
        },
        {
          "indexed": false,
          "internalType": "uint256",
          "name": "creatorFee",
          "type": "uint256"
        }
      ],
      "name": "CollectionUpdate",
      "type": "event"
    },
    {
      "anonymous": false,
      "inputs": [
        {
          "indexed": false,
          "internalType": "uint256",
          "name": "minimumAskPrice",
          "type": "uint256"
        },
        {
          "indexed": false,
          "internalType": "uint256",
          "name": "maximumAskPrice",
          "type": "uint256"
        }
      ],
      "name": "NewMinimumAndMaximumAskPrices",
      "type": "event"
    },
    {
      "anonymous": false,
      "inputs": [
        {
          "indexed": true,
          "internalType": "address",
          "name": "token",
          "type": "address"
        },
        {
          "indexed": true,
          "internalType": "uint256",
          "name": "tokenId",
          "type": "uint256"
        }
      ],
      "name": "NonFungibleTokenRecovery",
      "type": "event"
    },
    {
      "anonymous": false,
      "inputs": [
        {
          "indexed": true,
          "internalType": "address",
          "name": "previousOwner",
          "type": "address"
        },
        {
          "indexed": true,
          "internalType": "address",
          "name": "newOwner",
          "type": "address"
        }
      ],
      "name": "OwnershipTransferred",
      "type": "event"
    },
    {
      "anonymous": false,
      "inputs": [
        {
          "indexed": true,
          "internalType": "address",
          "name": "claimer",
          "type": "address"
        },
        {
          "indexed": false,
          "internalType": "uint256",
          "name": "amount",
          "type": "uint256"
        }
      ],
      "name": "RevenueClaim",
      "type": "event"
    },
    {
      "anonymous": false,
      "inputs": [
        {
          "indexed": true,
          "internalType": "address",
          "name": "token",
          "type": "address"
        },
        {
          "indexed": false,
          "internalType": "uint256",
          "name": "amount",
          "type": "uint256"
        }
      ],
      "name": "TokenRecovery",
      "type": "event"
    },
    {
      "anonymous": false,
      "inputs": [
        {
          "indexed": true,
          "internalType": "address",
          "name": "collection",
          "type": "address"
        },
        {
          "indexed": true,
          "internalType": "uint256",
          "name": "tokenId",
          "type": "uint256"
        },
        {
          "indexed": true,
          "internalType": "address",
          "name": "seller",
          "type": "address"
        },
        {
          "indexed": false,
          "internalType": "address",
          "name": "buyer",
          "type": "address"
        },
        {
          "indexed": false,
          "internalType": "uint256",
          "name": "askPrice",
          "type": "uint256"
        },
        {
          "indexed": false,
          "internalType": "uint256",
          "name": "netPrice",
          "type": "uint256"
        },
        {
          "indexed": false,
          "internalType": "bool",
          "name": "withBNB",
          "type": "bool"
        }
      ],
      "name": "Trade",
      "type": "event"
    },
    {
      "inputs": [],
      "name": "TOTAL_MAX_FEE",
      "outputs": [
        {
          "internalType": "uint256",
          "name": "",
          "type": "uint256"
        }
      ],
      "stateMutability": "view",
      "type": "function"
    },
    {
      "inputs": [],
      "name": "WBNB",
      "outputs": [
        {
          "internalType": "address",
          "name": "",
          "type": "address"
        }
      ],
      "stateMutability": "view",
      "type": "function"
    },
    {
      "inputs": [
        {
          "internalType": "address",
          "name": "_collection",
          "type": "address"
        },
        {
          "internalType": "address",
          "name": "_creator",
          "type": "address"
        },
        {
          "internalType": "address",
          "name": "_whitelistChecker",
          "type": "address"
        },
        {
          "internalType": "uint256",
          "name": "_tradingFee",
          "type": "uint256"
        },
        {
          "internalType": "uint256",
          "name": "_creatorFee",
          "type": "uint256"
        }
      ],
      "name": "addCollection",
      "outputs": [],
      "stateMutability": "nonpayable",
      "type": "function"
    },
    {
      "inputs": [],
      "name": "adminAddress",
      "outputs": [
        {
          "internalType": "address",
          "name": "",
          "type": "address"
        }
      ],
      "stateMutability": "view",
      "type": "function"
    },
    {
      "inputs": [
        {
          "internalType": "address",
          "name": "_collection",
          "type": "address"
        },
        {
          "internalType": "uint256",
          "name": "_tokenId",
          "type": "uint256"
        }
      ],
      "name": "buyTokenUsingBNB",
      "outputs": [],
      "stateMutability": "payable",
      "type": "function"
    },
    {
      "inputs": [
        {
          "internalType": "address",
          "name": "_collection",
          "type": "address"
        },
        {
          "internalType": "uint256",
          "name": "_tokenId",
          "type": "uint256"
        },
        {
          "internalType": "uint256",
          "name": "_price",
          "type": "uint256"
        }
      ],
      "name": "buyTokenUsingWBNB",
      "outputs": [],
      "stateMutability": "nonpayable",
      "type": "function"
    },
    {
      "inputs": [
        {
          "internalType": "address",
          "name": "collection",
          "type": "address"
        },
        {
          "internalType": "uint256",
          "name": "price",
          "type": "uint256"
        }
      ],
      "name": "calculatePriceAndFeesForCollection",
      "outputs": [
        {
          "internalType": "uint256",
          "name": "netPrice",
          "type": "uint256"
        },
        {
          "internalType": "uint256",
          "name": "tradingFee",
          "type": "uint256"
        },
        {
          "internalType": "uint256",
          "name": "creatorFee",
          "type": "uint256"
        }
      ],
      "stateMutability": "view",
      "type": "function"
    },
    {
      "inputs": [
        {
          "internalType": "address",
          "name": "_collection",
          "type": "address"
        },
        {
          "internalType": "uint256[]",
          "name": "_tokenIds",
          "type": "uint256[]"
        }
      ],
      "name": "canTokensBeListed",
      "outputs": [
        {
          "internalType": "bool[]",
          "name": "listingStatuses",
          "type": "bool[]"
        }
      ],
      "stateMutability": "view",
      "type": "function"
    },
    {
      "inputs": [
        {
          "internalType": "address",
          "name": "_collection",
          "type": "address"
        },
        {
          "internalType": "uint256",
          "name": "_tokenId",
          "type": "uint256"
        }
      ],
      "name": "cancelAskOrder",
      "outputs": [],
      "stateMutability": "nonpayable",
      "type": "function"
    },
    {
      "inputs": [],
      "name": "claimPendingRevenue",
      "outputs": [],
      "stateMutability": "nonpayable",
      "type": "function"
    },
    {
      "inputs": [
        {
          "internalType": "address",
          "name": "_collection",
          "type": "address"
        }
      ],
      "name": "closeCollectionForTradingAndListing",
      "outputs": [],
      "stateMutability": "nonpayable",
      "type": "function"
    },
    {
      "inputs": [
        {
          "internalType": "address",
          "name": "_collection",
          "type": "address"
        },
        {
          "internalType": "uint256",
          "name": "_tokenId",
          "type": "uint256"
        },
        {
          "internalType": "uint256",
          "name": "_askPrice",
          "type": "uint256"
        }
      ],
      "name": "createAskOrder",
      "outputs": [],
      "stateMutability": "nonpayable",
      "type": "function"
    },
    {
      "inputs": [],
      "name": "maximumAskPrice",
      "outputs": [
        {
          "internalType": "uint256",
          "name": "",
          "type": "uint256"
        }
      ],
      "stateMutability": "view",
      "type": "function"
    },
    {
      "inputs": [],
      "name": "minimumAskPrice",
      "outputs": [
        {
          "internalType": "uint256",
          "name": "",
          "type": "uint256"
        }
      ],
      "stateMutability": "view",
      "type": "function"
    },
    {
      "inputs": [
        {
          "internalType": "address",
          "name": "_collection",
          "type": "address"
        },
        {
          "internalType": "uint256",
          "name": "_tokenId",
          "type": "uint256"
        },
        {
          "internalType": "uint256",
          "name": "_newPrice",
          "type": "uint256"
        }
      ],
      "name": "modifyAskOrder",
      "outputs": [],
      "stateMutability": "nonpayable",
      "type": "function"
    },
    {
      "inputs": [
        {
          "internalType": "address",
          "name": "_collection",
          "type": "address"
        },
        {
          "internalType": "address",
          "name": "_creator",
          "type": "address"
        },
        {
          "internalType": "address",
          "name": "_whitelistChecker",
          "type": "address"
        },
        {
          "internalType": "uint256",
          "name": "_tradingFee",
          "type": "uint256"
        },
        {
          "internalType": "uint256",
          "name": "_creatorFee",
          "type": "uint256"
        }
      ],
      "name": "modifyCollection",
      "outputs": [],
      "stateMutability": "nonpayable",
      "type": "function"
    },
    {
      "inputs": [
        {
          "internalType": "address",
          "name": "",
          "type": "address"
        },
        {
          "internalType": "address",
          "name": "",
          "type": "address"
        },
        {
          "internalType": "uint256",
          "name": "",
          "type": "uint256"
        },
        {
          "internalType": "bytes",
          "name": "",
          "type": "bytes"
        }
      ],
      "name": "onERC721Received",
      "outputs": [
        {
          "internalType": "bytes4",
          "name": "",
          "type": "bytes4"
        }
      ],
      "stateMutability": "nonpayable",
      "type": "function"
    },
    {
      "inputs": [],
      "name": "owner",
      "outputs": [
        {
          "internalType": "address",
          "name": "",
          "type": "address"
        }
      ],
      "stateMutability": "view",
      "type": "function"
    },
    {
      "inputs": [
        {
          "internalType": "address",
          "name": "",
          "type": "address"
        }
      ],
      "name": "pendingRevenue",
      "outputs": [
        {
          "internalType": "uint256",
          "name": "",
          "type": "uint256"
        }
      ],
      "stateMutability": "view",
      "type": "function"
    },
    {
      "inputs": [
        {
          "internalType": "address",
          "name": "_token",
          "type": "address"
        }
      ],
      "name": "recoverFungibleTokens",
      "outputs": [],
      "stateMutability": "nonpayable",
      "type": "function"
    },
    {
      "inputs": [
        {
          "internalType": "address",
          "name": "_token",
          "type": "address"
        },
        {
          "internalType": "uint256",
          "name": "_tokenId",
          "type": "uint256"
        }
      ],
      "name": "recoverNonFungibleToken",
      "outputs": [],
      "stateMutability": "nonpayable",
      "type": "function"
    },
    {
      "inputs": [],
      "name": "renounceOwnership",
      "outputs": [],
      "stateMutability": "nonpayable",
      "type": "function"
    },
    {
      "inputs": [
        {
          "internalType": "address",
          "name": "_treasuryAddress",
          "type": "address"
        }
      ],
      "name": "setTreasuryAddress",
      "outputs": [],
      "stateMutability": "nonpayable",
      "type": "function"
    },
    {
      "inputs": [
        {
          "internalType": "address",
          "name": "newOwner",
          "type": "address"
        }
      ],
      "name": "transferOwnership",
      "outputs": [],
      "stateMutability": "nonpayable",
      "type": "function"
    },
    {
      "inputs": [],
      "name": "treasuryAddress",
      "outputs": [
        {
          "internalType": "address",
          "name": "",
          "type": "address"
        }
      ],
      "stateMutability": "view",
      "type": "function"
    },
    {
      "inputs": [
        {
          "internalType": "uint256",
          "name": "_minimumAskPrice",
          "type": "uint256"
        },
        {
          "internalType": "uint256",
          "name": "_maximumAskPrice",
          "type": "uint256"
        }
      ],
      "name": "updateMinimumAndMaximumPrices",
      "outputs": [],
      "stateMutability": "nonpayable",
      "type": "function"
    },
    {
      "inputs": [
        {
          "internalType": "address",
          "name": "collection",
          "type": "address"
        },
        {
          "internalType": "uint256",
          "name": "cursor",
          "type": "uint256"
        },
        {
          "internalType": "uint256",
          "name": "size",
          "type": "uint256"
        }
      ],
      "name": "viewAsksByCollection",
      "outputs": [
        {
          "internalType": "uint256[]",
          "name": "tokenIds",
          "type": "uint256[]"
        },
        {
          "components": [
            {
              "internalType": "address",
              "name": "seller",
              "type": "address"
            },
            {
              "internalType": "uint256",
              "name": "price",
              "type": "uint256"
            }
          ],
          "internalType": "struct MDao3NFTMarket.Ask[]",
          "name": "askInfo",
          "type": "tuple[]"
        },
        {
          "internalType": "uint256",
          "name": "",
          "type": "uint256"
        }
      ],
      "stateMutability": "view",
      "type": "function"
    },
    {
      "inputs": [
        {
          "internalType": "address",
          "name": "collection",
          "type": "address"
        },
        {
          "internalType": "address",
          "name": "seller",
          "type": "address"
        },
        {
          "internalType": "uint256",
          "name": "cursor",
          "type": "uint256"
        },
        {
          "internalType": "uint256",
          "name": "size",
          "type": "uint256"
        }
      ],
      "name": "viewAsksByCollectionAndSeller",
      "outputs": [
        {
          "internalType": "uint256[]",
          "name": "tokenIds",
          "type": "uint256[]"
        },
        {
          "components": [
            {
              "internalType": "address",
              "name": "seller",
              "type": "address"
            },
            {
              "internalType": "uint256",
              "name": "price",
              "type": "uint256"
            }
          ],
          "internalType": "struct MDao3NFTMarket.Ask[]",
          "name": "askInfo",
          "type": "tuple[]"
        },
        {
          "internalType": "uint256",
          "name": "",
          "type": "uint256"
        }
      ],
      "stateMutability": "view",
      "type": "function"
    },
    {
      "inputs": [
        {
          "internalType": "address",
          "name": "collection",
          "type": "address"
        },
        {
          "internalType": "uint256[]",
          "name": "tokenIds",
          "type": "uint256[]"
        }
      ],
      "name": "viewAsksByCollectionAndTokenIds",
      "outputs": [
        {
          "internalType": "bool[]",
          "name": "statuses",
          "type": "bool[]"
        },
        {
          "components": [
            {
              "internalType": "address",
              "name": "seller",
              "type": "address"
            },
            {
              "internalType": "uint256",
              "name": "price",
              "type": "uint256"
            }
          ],
          "internalType": "struct MDao3NFTMarket.Ask[]",
          "name": "askInfo",
          "type": "tuple[]"
        }
      ],
      "stateMutability": "view",
      "type": "function"
    },
    {
      "inputs": [
        {
          "internalType": "uint256",
          "name": "cursor",
          "type": "uint256"
        },
        {
          "internalType": "uint256",
          "name": "size",
          "type": "uint256"
        }
      ],
      "name": "viewCollections",
      "outputs": [
        {
          "internalType": "address[]",
          "name": "collectionAddresses",
          "type": "address[]"
        },
        {
          "components": [
            {
              "internalType": "enum MDao3NFTMarket.CollectionStatus",
              "name": "status",
              "type": "uint8"
            },
            {
              "internalType": "address",
              "name": "creatorAddress",
              "type": "address"
            },
            {
              "internalType": "address",
              "name": "whitelistChecker",
              "type": "address"
            },
            {
              "internalType": "uint256",
              "name": "tradingFee",
              "type": "uint256"
            },
            {
              "internalType": "uint256",
              "name": "creatorFee",
              "type": "uint256"
            }
          ],
          "internalType": "struct MDao3NFTMarket.Collection[]",
          "name": "collectionDetails",
          "type": "tuple[]"
        },
        {
          "internalType": "uint256",
          "name": "",
          "type": "uint256"
        }
      ],
      "stateMutability": "view",
      "type": "function"
    }
  ],
  "bytecode": "0x60a06040523480156200001157600080fd5b50604051620038d3380380620038d3833981016040819052620000349162000301565b6200003f3362000294565b600180556001600160a01b038516620000b05760405162461bcd60e51b815260206004820152602860248201527f4f7065726174696f6e733a2041646d696e20616464726573732063616e6e6f74604482015267206265207a65726f60c01b60648201526084015b60405180910390fd5b6001600160a01b0384166200011c5760405162461bcd60e51b815260206004820152602b60248201527f4f7065726174696f6e733a20547265617375727920616464726573732063616e60448201526a6e6f74206265207a65726f60a81b6064820152608401620000a7565b6001600160a01b038316620001845760405162461bcd60e51b815260206004820152602760248201527f4f7065726174696f6e733a2057424e4220616464726573732063616e6e6f74206044820152666265207a65726f60c81b6064820152608401620000a7565b60008211620001e75760405162461bcd60e51b815260206004820152602860248201527f4f7065726174696f6e733a205f6d696e696d756d41736b5072696365206d7573604482015267074206265203e20360c41b6064820152608401620000a7565b808210620002505760405162461bcd60e51b815260206004820152602f60248201527f4f7065726174696f6e733a205f6d696e696d756d41736b5072696365203c205f60448201526e6d6178696d756d41736b507269636560881b6064820152608401620000a7565b600280546001600160a01b03199081166001600160a01b0397881617909155600380549091169486169490941790935592166080526004919091556005556200035e565b600080546001600160a01b038381166001600160a01b0319831681178455604051919092169283917f8be0079c531659141344cd1fd0a4f28419497f9722a3daafe3b4186f6b6457e09190a35050565b80516001600160a01b0381168114620002fc57600080fd5b919050565b600080600080600060a086880312156200031a57600080fd5b6200032586620002e4565b94506200033560208701620002e4565b93506200034560408701620002e4565b6060870151608090970151959894975095949392505050565b6080516135366200039d600039600081816103e90152818161082d015281816118f5015281816121b8015281816122bd015261284201526135366000f3fe6080604052600436106101cd5760003560e01c806398a5155a116100f7578063c5f956af11610095578063ed140e8611610064578063ed140e861461059e578063f2fde38b146105be578063fb9fe938146105de578063fc6f9468146105f157600080fd5b8063c5f956af1461051e578063d286ef741461053e578063ddf9ba6f1461055e578063e17734a31461057e57600080fd5b8063b2ea3931116100d1578063b2ea39311461049c578063b6c1d2cf146104bc578063bb0fd147146104d1578063c5d4618e146104f157600080fd5b806398a5155a1461042b5780639b2adcdc146104415780639e0140c81461046157600080fd5b80636605bfda1161016f57806384a408641161013e57806384a40864146103765780638da5cb5b146103a55780638dd95002146103d757806395f420981461040b57600080fd5b80636605bfda146103015780636b24803214610321578063715018a614610341578063803b64a11461035657600080fd5b806322f67b6d116101ab57806322f67b6d1461026c5780633ffd17811461029a5780634f06d441146102bc57806351c383ea146102d257600080fd5b8063150b7a02146101d2578063209cbe7e1461021b57806320b6b2fc1461023f575b600080fd5b3480156101de57600080fd5b506101fd6101ed366004612d36565b630a85bd0160e11b949350505050565b6040516001600160e01b031990911681526020015b60405180910390f35b34801561022757600080fd5b506102316103e881565b604051908152602001610212565b34801561024b57600080fd5b5061023161025a366004612e12565b60066020526000908152604090205481565b34801561027857600080fd5b5061028c610287366004612e2d565b610611565b604051610212929190612f34565b3480156102a657600080fd5b506102ba6102b5366004612e12565b6107f8565b005b3480156102c857600080fd5b5061023160045481565b3480156102de57600080fd5b506102f26102ed366004612f62565b6109c4565b60405161021293929190612f9a565b34801561030d57600080fd5b506102ba61031c366004612e12565b610bff565b34801561032d57600080fd5b506102ba61033c36600461307c565b610cb5565b34801561034d57600080fd5b506102ba610e95565b34801561036257600080fd5b506102ba6103713660046130d1565b610ecb565b34801561038257600080fd5b506103966103913660046130d1565b611172565b60405161021293929190613104565b3480156103b157600080fd5b506000546001600160a01b03165b6040516001600160a01b039091168152602001610212565b3480156103e357600080fd5b506103bf7f000000000000000000000000000000000000000000000000000000000000000081565b34801561041757600080fd5b506102ba610426366004613163565b61139c565b34801561043757600080fd5b5061023160055481565b34801561044d57600080fd5b506102ba61045c3660046130d1565b611550565b34801561046d57600080fd5b5061048161047c366004613163565b611723565b60408051938452602084019290925290820152606001610212565b3480156104a857600080fd5b506102ba6104b7366004612f62565b611780565b3480156104c857600080fd5b506102ba611858565b3480156104dd57600080fd5b506102ba6104ec366004613163565b611960565b3480156104fd57600080fd5b5061051161050c366004612e2d565b611ac0565b604051610212919061318d565b34801561052a57600080fd5b506003546103bf906001600160a01b031681565b34801561054a57600080fd5b506103966105593660046131a0565b611ba5565b34801561056a57600080fd5b506102ba610579366004612e12565b611df9565b34801561058a57600080fd5b506102ba61059936600461307c565b611eb0565b3480156105aa57600080fd5b506102ba6105b93660046130d1565b612184565b3480156105ca57600080fd5b506102ba6105d9366004612e12565b6121f6565b6102ba6105ec366004613163565b612291565b3480156105fd57600080fd5b506002546103bf906001600160a01b031681565b606080828067ffffffffffffffff81111561062e5761062e612d20565b604051908082528060200260200182016040528015610657578160200160208202803683370190505b5092508067ffffffffffffffff81111561067357610673612d20565b6040519080825280602002602001820160405280156106b857816020015b60408051808201909152600080825260208201528152602001906001900390816106915790505b50915060005b818110156107ee576107028686838181106106db576106db6131e2565b6001600160a01b038b166000908152600a6020908152604090912093910201359050612344565b1561073057600184828151811061071b5761071b6131e2565b91151560209283029190910190910152610755565b6000848281518110610744576107446131e2565b911515602092830291909101909101525b6001600160a01b038716600090815260096020526040812090878784818110610780576107806131e2565b60209081029290920135835250818101929092526040908101600020815180830190925280546001600160a01b03168252600101549181019190915283518490839081106107d0576107d06131e2565b602002602001018190525080806107e69061320e565b9150506106be565b5050935093915050565b6000546001600160a01b0316331461082b5760405162461bcd60e51b815260040161082290613227565b60405180910390fd5b7f00000000000000000000000000000000000000000000000000000000000000006001600160a01b0316816001600160a01b0316036108ac5760405162461bcd60e51b815260206004820152601f60248201527f4f7065726174696f6e733a2043616e6e6f74207265636f7665722057424e42006044820152606401610822565b6040516370a0823160e01b81523060048201526000906001600160a01b038316906370a0823190602401602060405180830381865afa1580156108f3573d6000803e3d6000fd5b505050506040513d601f19601f82011682018060405250810190610917919061325c565b9050806000036109695760405162461bcd60e51b815260206004820152601f60248201527f4f7065726174696f6e733a204e6f20746f6b656e20746f207265636f766572006044820152606401610822565b61097d6001600160a01b0383163383612361565b816001600160a01b03167f14f11966a996e0629572e51064726d2057a80fbd34efc066682c06a71dbb6e98826040516109b891815260200190565b60405180910390a25050565b606080600083856109d560076123c9565b6109df9190613275565b8111156109fe57856109f160076123c9565b6109fb9190613275565b90505b8067ffffffffffffffff811115610a1757610a17612d20565b604051908082528060200260200182016040528015610a40578160200160208202803683370190505b5093508067ffffffffffffffff811115610a5c57610a5c612d20565b604051908082528060200260200182016040528015610ab557816020015b6040805160a081018252600080825260208083018290529282018190526060820181905260808201528252600019909201910181610a7a5790505b50925060005b81811015610be357610ad8610ad0828961328c565b6007906123d3565b858281518110610aea57610aea6131e2565b60200260200101906001600160a01b031690816001600160a01b031681525050600b6000868381518110610b2057610b206131e2565b6020908102919091018101516001600160a01b031682528101919091526040908101600020815160a081019092528054829060ff166002811115610b6657610b66612f84565b6002811115610b7757610b77612f84565b815281546001600160a01b03610100909104811660208301526001830154166040820152600282015460608201526003909101546080909101528451859083908110610bc557610bc56131e2565b60200260200101819052508080610bdb9061320e565b915050610abb565b508383610bf0838961328c565b935093509350505b9250925092565b6000546001600160a01b03163314610c295760405162461bcd60e51b815260040161082290613227565b6001600160a01b038116610c935760405162461bcd60e51b815260206004820152602b60248201527f4f7065726174696f6e733a20547265617375727920616464726573732063616e60448201526a6e6f74206265207a65726f60a81b6064820152608401610822565b600380546001600160a01b0319166001600160a01b0392909216919091179055565b6002546001600160a01b03163314610cdf5760405162461bcd60e51b8152600401610822906132a4565b610cea6007866123df565b610d065760405162461bcd60e51b8152600401610822906132d3565b80158015610d1b57506001600160a01b038416155b80610d3857508015801590610d3857506001600160a01b03841615155b610d545760405162461bcd60e51b815260040161082290613314565b6103e8610d61828461328c565b1115610d7f5760405162461bcd60e51b81526004016108229061335c565b6040805160a0810190915280600181526001600160a01b038087166020808401919091528682166040808501919091526060840187905260809093018590529088166000908152600b9091522081518154829060ff19166001836002811115610dea57610dea612f84565b02179055506020828101518254610100600160a81b0319166101006001600160a01b03928316021783556040808501516001850180546001600160a01b03191691841691909117905560608501516002850155608090940151600390930192909255825185815290810184905285821692878316928916917f655bd8b9d972737b566ec5473b537d81d079c6e251d4986005bf3f36000eacef91015b60405180910390a45050505050565b6000546001600160a01b03163314610ebf5760405162461bcd60e51b815260040161082290613227565b610ec96000612401565b565b600260015403610eed5760405162461bcd60e51b8152600401610822906133b1565b60026001556004548110801590610f0657506005548111155b610f525760405162461bcd60e51b815260206004820152601d60248201527f4f726465723a205072696365206e6f742077697468696e2072616e67650000006044820152606401610822565b60016001600160a01b0384166000908152600b602052604090205460ff166002811115610f8157610f81612f84565b14610fce5760405162461bcd60e51b815260206004820152601b60248201527f436f6c6c656374696f6e3a204e6f7420666f72206c697374696e6700000000006044820152606401610822565b610fd88383612451565b6110245760405162461bcd60e51b815260206004820152601b60248201527f4f726465723a20746f6b656e4964206e6f7420656c696769626c6500000000006044820152606401610822565b604051632142170760e11b81526001600160a01b038416906342842e0e90611054903390309087906004016133e8565b600060405180830381600087803b15801561106e57600080fd5b505af1158015611082573d6000803e3d6000fd5b5050336000908152600c602090815260408083206001600160a01b038916845290915290206110b492509050836124ea565b5060408051808201825233815260208082018481526001600160a01b038781166000818152600985528681208982528552868120955186546001600160a01b031916931692909217855591516001909401939093558252600a90522061111a90836124ea565b5081336001600160a01b0316846001600160a01b03167faa0431463bb62c812c04a1e5310cf43dd9baedc7a8eab71e02f572c741467e8c8460405161116191815260200190565b60405180910390a450506001805550565b6001600160a01b0383166000908152600a6020526040812060609182918490869061119c906123c9565b6111a69190613275565b8111156111dd576001600160a01b0387166000908152600a6020526040902086906111d0906123c9565b6111da9190613275565b90505b8067ffffffffffffffff8111156111f6576111f6612d20565b60405190808252806020026020018201604052801561121f578160200160208202803683370190505b5093508067ffffffffffffffff81111561123b5761123b612d20565b60405190808252806020026020018201604052801561128057816020015b60408051808201909152600080825260208201528152602001906001900390816112595790505b50925060005b8181101561137f576112b961129b828961328c565b6001600160a01b038a166000908152600a60205260409020906123d3565b8582815181106112cb576112cb6131e2565b60200260200101818152505060096000896001600160a01b03166001600160a01b031681526020019081526020016000206000868381518110611310576113106131e2565b6020908102919091018101518252818101929092526040908101600020815180830190925280546001600160a01b0316825260010154918101919091528451859083908110611361576113616131e2565b602002602001018190525080806113779061320e565b915050611286565b50838361138c838961328c565b9350935093505093509350939050565b6002600154036113be5760405162461bcd60e51b8152600401610822906133b1565b6002600155336000908152600c602090815260408083206001600160a01b038616845290915290206113f09082612344565b6114365760405162461bcd60e51b815260206004820152601760248201527613dc99195c8e88151bdad95b881b9bdd081b1a5cdd1959604a1b6044820152606401610822565b336000908152600c602090815260408083206001600160a01b0386168452909152902061146390826124f6565b506001600160a01b0382166000818152600960209081526040808320858452825280832080546001600160a01b0319168155600101839055928252600a9052206114ad90826124f6565b506040516323b872dd60e01b81526001600160a01b038316906323b872dd906114de903090339086906004016133e8565b600060405180830381600087803b1580156114f857600080fd5b505af115801561150c573d6000803e3d6000fd5b50506040518392503391506001600160a01b038516907fa5764ea233325154a6388255c54b9f302ec2ed8586af0a9a606cd64e88298eb790600090a4505060018055565b6002600154036115725760405162461bcd60e51b8152600401610822906133b1565b6002600155600454811080159061158b57506005548111155b6115d75760405162461bcd60e51b815260206004820152601d60248201527f4f726465723a205072696365206e6f742077697468696e2072616e67650000006044820152606401610822565b60016001600160a01b0384166000908152600b602052604090205460ff16600281111561160657611606612f84565b146116535760405162461bcd60e51b815260206004820152601b60248201527f436f6c6c656374696f6e3a204e6f7420666f72206c697374696e6700000000006044820152606401610822565b336000908152600c602090815260408083206001600160a01b038716845290915290206116809083612344565b6116c65760405162461bcd60e51b815260206004820152601760248201527613dc99195c8e88151bdad95b881b9bdd081b1a5cdd1959604a1b6044820152606401610822565b6001600160a01b038316600081815260096020908152604080832086845282529182902060010184905590518381528492339290917f492437c0ade072acdf12e63a19d8df68bb5e414e2098dc470239df87702343ea9101611161565b6000808060016001600160a01b0386166000908152600b602052604090205460ff16600281111561175657611756612f84565b1461176957506000915081905080610bf8565b6117738585612502565b9250925092509250925092565b6002546001600160a01b031633146117aa5760405162461bcd60e51b8152600401610822906132a4565b8082106118115760405162461bcd60e51b815260206004820152602f60248201527f4f7065726174696f6e733a205f6d696e696d756d41736b5072696365203c205f60448201526e6d6178696d756d41736b507269636560881b6064820152608401610822565b6004829055600581905560408051838152602081018390527fb25b7c478b617cc7fb07f97a49dc7dcba200dae3abbcb0aa17216e2ae6deaef7910160405180910390a15050565b60026001540361187a5760405162461bcd60e51b8152600401610822906133b1565b600260015533600090815260066020526040812054908190036118df5760405162461bcd60e51b815260206004820152601760248201527f436c61696d3a204e6f7468696e6720746f20636c61696d0000000000000000006044820152606401610822565b33600081815260066020526040812055611924907f00000000000000000000000000000000000000000000000000000000000000006001600160a01b03169083612361565b60405181815233907fc6cb6f1a9d5212d4ee3819d9b175a85e8333a7327d53dfbc1b610e1fd8ec3cb59060200160405180910390a25060018055565b6000546001600160a01b0316331461198a5760405162461bcd60e51b815260040161082290613227565b6002600154036119ac5760405162461bcd60e51b8152600401610822906133b1565b60026001556001600160a01b0382166000908152600a602052604090206119d39082612344565b15611a205760405162461bcd60e51b815260206004820152601f60248201527f4f7065726174696f6e733a204e4654206e6f74207265636f76657261626c65006044820152606401610822565b604051632142170760e11b81526001600160a01b038316906342842e0e90611a50903090339086906004016133e8565b600060405180830381600087803b158015611a6a57600080fd5b505af1158015611a7e573d6000803e3d6000fd5b50506040518392506001600160a01b03851691507f861c3ea25dbda3af0bf5d258ba8582c0276c9446b1479e817be3f1b4a89acf9190600090a3505060018055565b60608167ffffffffffffffff811115611adb57611adb612d20565b604051908082528060200260200182016040528015611b04578160200160208202803683370190505b50905060016001600160a01b0385166000908152600b602052604090205460ff166002811115611b3657611b36612f84565b03611b9e5760005b82811015611b9c57611b6885858584818110611b5c57611b5c6131e2565b90506020020135612451565b828281518110611b7a57611b7a6131e2565b9115156020928302919091019091015280611b948161320e565b915050611b3e565b505b9392505050565b6001600160a01b038084166000908152600c602090815260408083209388168352929052908120606091829184908690611bde906123c9565b611be89190613275565b811115611c2c576001600160a01b038088166000908152600c60209081526040808320938c168352929052208690611c1f906123c9565b611c299190613275565b90505b8067ffffffffffffffff811115611c4557611c45612d20565b604051908082528060200260200182016040528015611c6e578160200160208202803683370190505b5093508067ffffffffffffffff811115611c8a57611c8a612d20565b604051908082528060200260200182016040528015611ccf57816020015b6040805180820190915260008082526020820152815260200190600190039081611ca85790505b50925060005b81811015611ddb57611d15611cea828961328c565b6001600160a01b03808b166000908152600c60209081526040808320938f16835292905220906123d3565b858281518110611d2757611d276131e2565b602002602001018181525050600960008a6001600160a01b03166001600160a01b031681526020019081526020016000206000868381518110611d6c57611d6c6131e2565b6020908102919091018101518252818101929092526040908101600020815180830190925280546001600160a01b0316825260010154918101919091528451859083908110611dbd57611dbd6131e2565b60200260200101819052508080611dd39061320e565b915050611cd5565b508383611de8838961328c565b935093509350509450945094915050565b6002546001600160a01b03163314611e235760405162461bcd60e51b8152600401610822906132a4565b611e2e6007826123df565b611e4a5760405162461bcd60e51b8152600401610822906132d3565b6001600160a01b0381166000908152600b60205260409020805460ff19166002179055611e78600782612591565b506040516001600160a01b038216907ff6df65a3d7d931af345d93f0420a22e8910de36c0d027c1d1ac93d5be509f5a990600090a250565b6002546001600160a01b03163314611eda5760405162461bcd60e51b8152600401610822906132a4565b611ee56007866123df565b15611f405760405162461bcd60e51b815260206004820152602560248201527f4f7065726174696f6e733a20436f6c6c656374696f6e20616c7265616479206c6044820152641a5cdd195960da1b6064820152608401610822565b6040516301ffc9a760e01b81526380ac58cd60e01b60048201526001600160a01b038616906301ffc9a790602401602060405180830381865afa158015611f8b573d6000803e3d6000fd5b505050506040513d601f19601f82011682018060405250810190611faf919061340c565b611ff45760405162461bcd60e51b81526020600482015260166024820152754f7065726174696f6e733a204e6f742045524337323160501b6044820152606401610822565b8015801561200957506001600160a01b038416155b806120265750801580159061202657506001600160a01b03841615155b6120425760405162461bcd60e51b815260040161082290613314565b6103e861204f828461328c565b111561206d5760405162461bcd60e51b81526004016108229061335c565b6120786007866125a6565b506040805160a0810190915280600181526001600160a01b038087166020808401919091528682166040808501919091526060840187905260809093018590529088166000908152600b9091522081518154829060ff191660018360028111156120e4576120e4612f84565b02179055506020828101518254610100600160a81b0319166101006001600160a01b03928316021783556040808501516001850180546001600160a01b03191691841691909117905560608501516002850155608090940151600390930192909255825185815290810184905285821692878316928916917f4863c75720ebabd11e0cf1c60b58786b5572680a20fa1b568c203964ae56026a9101610e86565b6002600154036121a65760405162461bcd60e51b8152600401610822906133b1565b60026001556121e06001600160a01b037f0000000000000000000000000000000000000000000000000000000000000000163330846125bb565b6121ed83838360006125e2565b50506001805550565b6000546001600160a01b031633146122205760405162461bcd60e51b815260040161082290613227565b6001600160a01b0381166122855760405162461bcd60e51b815260206004820152602660248201527f4f776e61626c653a206e6577206f776e657220697320746865207a65726f206160448201526564647265737360d01b6064820152608401610822565b61228e81612401565b50565b6002600154036122b35760405162461bcd60e51b8152600401610822906133b1565b60026001819055507f00000000000000000000000000000000000000000000000000000000000000006001600160a01b031663d0e30db0346040518263ffffffff1660e01b81526004016000604051808303818588803b15801561231657600080fd5b505af115801561232a573d6000803e3d6000fd5b505050505061233c82823460016125e2565b505060018055565b600081815260018301602052604081205415155b90505b92915050565b6040516001600160a01b0383166024820152604481018290526123c490849063a9059cbb60e01b906064015b60408051601f198184030181529190526020810180516001600160e01b03166001600160e01b0319909316929092179091526129b2565b505050565b600061235b825490565b60006123588383612a84565b6001600160a01b03811660009081526001830160205260408120541515612358565b600080546001600160a01b038381166001600160a01b0319831681178455604051919092169283917f8be0079c531659141344cd1fd0a4f28419497f9722a3daafe3b4186f6b6457e09190a35050565b6001600160a01b038083166000908152600b60205260408120600101549091168015806124e25750604051635314a93160e01b8152600481018490526001600160a01b03821690635314a93190602401602060405180830381865afa1580156124be573d6000803e3d6000fd5b505050506040513d601f19601f820116820180604052508101906124e2919061340c565b949350505050565b60006123588383612aae565b60006123588383612afd565b6001600160a01b0382166000908152600b60205260408120600201548190819061271090612530908661342e565b61253a919061344d565b6001600160a01b0386166000908152600b602052604090206003015490925061271090612567908661342e565b612571919061344d565b90508061257e8386613275565b6125889190613275565b92509250925092565b6000612358836001600160a01b038416612afd565b6000612358836001600160a01b038416612aae565b6125dc846323b872dd60e01b85858560405160240161238d939291906133e8565b50505050565b60016001600160a01b0385166000908152600b602052604090205460ff16600281111561261157612611612f84565b1461265e5760405162461bcd60e51b815260206004820152601b60248201527f436f6c6c656374696f6e3a204e6f7420666f722074726164696e6700000000006044820152606401610822565b6001600160a01b0384166000908152600a602052604090206126809084612344565b6126c05760405162461bcd60e51b81526020600482015260116024820152704275793a204e6f7420666f722073616c6560781b6044820152606401610822565b6001600160a01b0380851660009081526009602090815260408083208784528252918290208251808401909352805490931682526001909201549181018290529083146127465760405162461bcd60e51b81526020600482015260146024820152734275793a20496e636f727265637420707269636560601b6044820152606401610822565b80516001600160a01b0316330361279f5760405162461bcd60e51b815260206004820152601b60248201527f4275793a2042757965722063616e6e6f742062652073656c6c657200000000006044820152606401610822565b60008060006127ae8887612502565b86516001600160a01b039081166000908152600c60209081526040808320938f1683529290522092955090935091506127e790886124f6565b506001600160a01b03881660008181526009602090815260408083208b8452825280832080546001600160a01b0319168155600101839055928252600a90522061283190886124f6565b508351612869906001600160a01b037f0000000000000000000000000000000000000000000000000000000000000000169085612361565b80156128b3576001600160a01b038089166000908152600b6020908152604080832054610100900490931682526006905290812080548392906128ad90849061328c565b90915550505b81156128e9576003546001600160a01b0316600090815260066020526040812080548492906128e390849061328c565b90915550505b604051632142170760e11b81526001600160a01b038916906342842e0e9061291990309033908c906004016133e8565b600060405180830381600087803b15801561293357600080fd5b505af1158015612947573d6000803e3d6000fd5b5050855160408051338152602081018b905290810187905288151560608201526001600160a01b0391821693508a9250908b16907fdaac0e40b8f01e970d08d4e8ae57ac31a5845fffde104c43f05e19bbec78491e9060800160405180910390a45050505050505050565b6000612a07826040518060400160405280602081526020017f5361666545524332303a206c6f772d6c6576656c2063616c6c206661696c6564815250856001600160a01b0316612bf09092919063ffffffff16565b8051909150156123c45780806020019051810190612a25919061340c565b6123c45760405162461bcd60e51b815260206004820152602a60248201527f5361666545524332303a204552433230206f7065726174696f6e20646964206e6044820152691bdd081cdd58d8d9595960b21b6064820152608401610822565b6000826000018281548110612a9b57612a9b6131e2565b9060005260206000200154905092915050565b6000818152600183016020526040812054612af55750815460018181018455600084815260208082209093018490558454848252828601909352604090209190915561235b565b50600061235b565b60008181526001830160205260408120548015612be6576000612b21600183613275565b8554909150600090612b3590600190613275565b9050818114612b9a576000866000018281548110612b5557612b556131e2565b9060005260206000200154905080876000018481548110612b7857612b786131e2565b6000918252602080832090910192909255918252600188019052604090208390555b8554869080612bab57612bab61346f565b60019003818190600052602060002001600090559055856001016000868152602001908152602001600020600090556001935050505061235b565b600091505061235b565b60606124e28484600085856001600160a01b0385163b612c525760405162461bcd60e51b815260206004820152601d60248201527f416464726573733a2063616c6c20746f206e6f6e2d636f6e74726163740000006044820152606401610822565b600080866001600160a01b03168587604051612c6e91906134b1565b60006040518083038185875af1925050503d8060008114612cab576040519150601f19603f3d011682016040523d82523d6000602084013e612cb0565b606091505b5091509150612cc0828286612ccb565b979650505050505050565b60608315612cda575081611b9e565b825115612cea5782518084602001fd5b8160405162461bcd60e51b815260040161082291906134cd565b80356001600160a01b0381168114612d1b57600080fd5b919050565b634e487b7160e01b600052604160045260246000fd5b60008060008060808587031215612d4c57600080fd5b612d5585612d04565b9350612d6360208601612d04565b925060408501359150606085013567ffffffffffffffff80821115612d8757600080fd5b818701915087601f830112612d9b57600080fd5b813581811115612dad57612dad612d20565b604051601f8201601f19908116603f01168101908382118183101715612dd557612dd5612d20565b816040528281528a6020848701011115612dee57600080fd5b82602086016020830137600060208483010152809550505050505092959194509250565b600060208284031215612e2457600080fd5b61235882612d04565b600080600060408486031215612e4257600080fd5b612e4b84612d04565b9250602084013567ffffffffffffffff80821115612e6857600080fd5b818601915086601f830112612e7c57600080fd5b813581811115612e8b57600080fd5b8760208260051b8501011115612ea057600080fd5b6020830194508093505050509250925092565b600081518084526020808501945080840160005b83811015612ee5578151151587529582019590820190600101612ec7565b509495945050505050565b600081518084526020808501945080840160005b83811015612ee557815180516001600160a01b031688528301518388015260409096019590820190600101612f04565b604081526000612f476040830185612eb3565b8281036020840152612f598185612ef0565b95945050505050565b60008060408385031215612f7557600080fd5b50508035926020909101359150565b634e487b7160e01b600052602160045260246000fd5b6060808252845182820181905260009190608090818501906020808a01865b83811015612fde5781516001600160a01b031685529382019390820190600101612fb9565b5050868303818801528851808452898201938201925060005b8181101561306457845180516003811061302157634e487b7160e01b600052602160045260246000fd5b8552808401516001600160a01b0390811685870152604080830151909116908601528781015188860152860151868501529382019360a090930192600101612ff7565b50505080945050505050826040830152949350505050565b600080600080600060a0868803121561309457600080fd5b61309d86612d04565b94506130ab60208701612d04565b93506130b960408701612d04565b94979396509394606081013594506080013592915050565b6000806000606084860312156130e657600080fd5b6130ef84612d04565b95602085013595506040909401359392505050565b606080825284519082018190526000906020906080840190828801845b8281101561313d57815184529284019290840190600101613121565b505050838103828501526131518187612ef0565b92505050826040830152949350505050565b6000806040838503121561317657600080fd5b61317f83612d04565b946020939093013593505050565b6020815260006123586020830184612eb3565b600080600080608085870312156131b657600080fd5b6131bf85612d04565b93506131cd60208601612d04565b93969395505050506040820135916060013590565b634e487b7160e01b600052603260045260246000fd5b634e487b7160e01b600052601160045260246000fd5b600060018201613220576132206131f8565b5060010190565b6020808252818101527f4f776e61626c653a2063616c6c6572206973206e6f7420746865206f776e6572604082015260600190565b60006020828403121561326e57600080fd5b5051919050565b600082821015613287576132876131f8565b500390565b6000821982111561329f5761329f6131f8565b500190565b60208082526015908201527426b0b730b3b2b6b2b73a1d102737ba1030b236b4b760591b604082015260600190565b60208082526021908201527f4f7065726174696f6e733a20436f6c6c656374696f6e206e6f74206c697374656040820152601960fa1b606082015260800190565b60208082526028908201527f4f7065726174696f6e733a2043726561746f7220706172616d657465727320696040820152671b98dbdc9c9958dd60c21b606082015260800190565b60208082526035908201527f4f7065726174696f6e733a2053756d206f6620666565206d75737420696e666560408201527472696f7220746f20544f54414c5f4d41585f46454560581b606082015260800190565b6020808252601f908201527f5265656e7472616e637947756172643a207265656e7472616e742063616c6c00604082015260600190565b6001600160a01b039384168152919092166020820152604081019190915260600190565b60006020828403121561341e57600080fd5b81518015158114611b9e57600080fd5b6000816000190483118215151615613448576134486131f8565b500290565b60008261346a57634e487b7160e01b600052601260045260246000fd5b500490565b634e487b7160e01b600052603160045260246000fd5b60005b838110156134a0578181015183820152602001613488565b838111156125dc5750506000910152565b600082516134c3818460208701613485565b9190910192915050565b60208152600082518060208401526134ec816040850160208701613485565b601f01601f1916919091016040019291505056fea264697066735822122066630d4a5af1478b8b76834a1cec0e5352d20026af4343792f6a83e183f9e20664736f6c634300080d0033",
  "linkReferences": {},
  "deployedLinkReferences": {}
}