{
  "_format": "hh-sol-artifact-1",
  "contractName": "Mdao3BatStarWarrior",
  "sourceName": "contracts/Mdao3BatStarWarrior.sol",
  "abi": [
    {
      "inputs": [],
      "stateMutability": "nonpayable",
      "type": "constructor"
    },
    {
      "inputs": [],
      "name": "ExceedsAllocatedForPublicSale",
      "type": "error"
    },
    {
      "inputs": [],
      "name": "ExceedsILoSaleMintLimit",
      "type": "error"
    },
    {
      "inputs": [],
      "name": "ExceedsILoSaleSupply",
      "type": "error"
    },
    {
      "inputs": [],
      "name": "ExceedsMaxSupply",
      "type": "error"
    },
    {
      "inputs": [],
      "name": "ExceedsPublicSaleMintLimit",
      "type": "error"
    },
    {
      "inputs": [],
      "name": "ExceedsPublicSaleSupply",
      "type": "error"
    },
    {
      "inputs": [],
      "name": "ExceedsWhitelistSaleMintLimit",
      "type": "error"
    },
    {
      "inputs": [],
      "name": "ExceedsWhitelistSaleSupply",
      "type": "error"
    },
    {
      "inputs": [],
      "name": "ILoSaleInactive",
      "type": "error"
    },
    {
      "inputs": [],
      "name": "InsufficientETHSent",
      "type": "error"
    },
    {
      "inputs": [],
      "name": "InsufficientTokenSent",
      "type": "error"
    },
    {
      "inputs": [],
      "name": "PublicSaleInactive",
      "type": "error"
    },
    {
      "inputs": [],
      "name": "UnAuthorizedRequest",
      "type": "error"
    },
    {
      "inputs": [],
      "name": "WhitelistSaleInactive",
      "type": "error"
    },
    {
      "inputs": [],
      "name": "WithdrawalFailed",
      "type": "error"
    },
    {
      "anonymous": false,
      "inputs": [
        {
          "indexed": true,
          "internalType": "address",
          "name": "owner",
          "type": "address"
        },
        {
          "indexed": true,
          "internalType": "address",
          "name": "approved",
          "type": "address"
        },
        {
          "indexed": true,
          "internalType": "uint256",
          "name": "tokenId",
          "type": "uint256"
        }
      ],
      "name": "Approval",
      "type": "event"
    },
    {
      "anonymous": false,
      "inputs": [
        {
          "indexed": true,
          "internalType": "address",
          "name": "owner",
          "type": "address"
        },
        {
          "indexed": true,
          "internalType": "address",
          "name": "operator",
          "type": "address"
        },
        {
          "indexed": false,
          "internalType": "bool",
          "name": "approved",
          "type": "bool"
        }
      ],
      "name": "ApprovalForAll",
      "type": "event"
    },
    {
      "anonymous": false,
      "inputs": [
        {
          "indexed": true,
          "internalType": "address",
          "name": "sender",
          "type": "address"
        },
        {
          "indexed": true,
          "internalType": "uint256",
          "name": "numLands",
          "type": "uint256"
        },
        {
          "indexed": true,
          "internalType": "uint256",
          "name": "mintPrice",
          "type": "uint256"
        }
      ],
      "name": "Minted",
      "type": "event"
    },
    {
      "anonymous": false,
      "inputs": [
        {
          "indexed": true,
          "internalType": "address",
          "name": "previousOwner",
          "type": "address"
        },
        {
          "indexed": true,
          "internalType": "address",
          "name": "newOwner",
          "type": "address"
        }
      ],
      "name": "OwnershipTransferred",
      "type": "event"
    },
    {
      "anonymous": false,
      "inputs": [
        {
          "indexed": false,
          "internalType": "address",
          "name": "account",
          "type": "address"
        }
      ],
      "name": "Paused",
      "type": "event"
    },
    {
      "anonymous": false,
      "inputs": [
        {
          "indexed": false,
          "internalType": "uint256",
          "name": "_timestamp",
          "type": "uint256"
        }
      ],
      "name": "SaleStart",
      "type": "event"
    },
    {
      "anonymous": false,
      "inputs": [
        {
          "indexed": false,
          "internalType": "uint256",
          "name": "_timestamp",
          "type": "uint256"
        }
      ],
      "name": "SaleStop",
      "type": "event"
    },
    {
      "anonymous": false,
      "inputs": [
        {
          "indexed": true,
          "internalType": "address",
          "name": "from",
          "type": "address"
        },
        {
          "indexed": true,
          "internalType": "address",
          "name": "to",
          "type": "address"
        },
        {
          "indexed": true,
          "internalType": "uint256",
          "name": "tokenId",
          "type": "uint256"
        }
      ],
      "name": "Transfer",
      "type": "event"
    },
    {
      "anonymous": false,
      "inputs": [
        {
          "indexed": false,
          "internalType": "address",
          "name": "account",
          "type": "address"
        }
      ],
      "name": "Unpaused",
      "type": "event"
    },
    {
      "inputs": [],
      "name": "ILO_SALE_MAX_MINT_LIMIT",
      "outputs": [
        {
          "internalType": "uint256",
          "name": "",
          "type": "uint256"
        }
      ],
      "stateMutability": "view",
      "type": "function"
    },
    {
      "inputs": [],
      "name": "ILO_SALE_MAX_SUPPLY",
      "outputs": [
        {
          "internalType": "uint256",
          "name": "",
          "type": "uint256"
        }
      ],
      "stateMutability": "view",
      "type": "function"
    },
    {
      "inputs": [],
      "name": "MAX_SUPPLY",
      "outputs": [
        {
          "internalType": "uint256",
          "name": "",
          "type": "uint256"
        }
      ],
      "stateMutability": "view",
      "type": "function"
    },
    {
      "inputs": [],
      "name": "PUBLIC_SALE_EACH_ROUND_SUPPLY",
      "outputs": [
        {
          "internalType": "uint256",
          "name": "",
          "type": "uint256"
        }
      ],
      "stateMutability": "view",
      "type": "function"
    },
    {
      "inputs": [],
      "name": "PUBLIC_SALE_MAX_MINT_LIMIT",
      "outputs": [
        {
          "internalType": "uint256",
          "name": "",
          "type": "uint256"
        }
      ],
      "stateMutability": "view",
      "type": "function"
    },
    {
      "inputs": [],
      "name": "PUBLIC_SALE_MAX_SUPPLY",
      "outputs": [
        {
          "internalType": "uint256",
          "name": "",
          "type": "uint256"
        }
      ],
      "stateMutability": "view",
      "type": "function"
    },
    {
      "inputs": [],
      "name": "SALE_PERIOD",
      "outputs": [
        {
          "internalType": "uint256",
          "name": "",
          "type": "uint256"
        }
      ],
      "stateMutability": "view",
      "type": "function"
    },
    {
      "inputs": [],
      "name": "WHITELIST_SALE_MAX_MINT_LIMIT",
      "outputs": [
        {
          "internalType": "uint256",
          "name": "",
          "type": "uint256"
        }
      ],
      "stateMutability": "view",
      "type": "function"
    },
    {
      "inputs": [],
      "name": "WHITELIST_SALE_MAX_SUPPLY",
      "outputs": [
        {
          "internalType": "uint256",
          "name": "",
          "type": "uint256"
        }
      ],
      "stateMutability": "view",
      "type": "function"
    },
    {
      "inputs": [],
      "name": "_tokenIds",
      "outputs": [
        {
          "internalType": "uint256",
          "name": "_value",
          "type": "uint256"
        }
      ],
      "stateMutability": "view",
      "type": "function"
    },
    {
      "inputs": [
        {
          "internalType": "address",
          "name": "to",
          "type": "address"
        },
        {
          "internalType": "uint256",
          "name": "tokenId",
          "type": "uint256"
        }
      ],
      "name": "approve",
      "outputs": [],
      "stateMutability": "nonpayable",
      "type": "function"
    },
    {
      "inputs": [
        {
          "internalType": "address",
          "name": "owner",
          "type": "address"
        }
      ],
      "name": "balanceOf",
      "outputs": [
        {
          "internalType": "uint256",
          "name": "",
          "type": "uint256"
        }
      ],
      "stateMutability": "view",
      "type": "function"
    },
    {
      "inputs": [],
      "name": "baseURI",
      "outputs": [
        {
          "internalType": "string",
          "name": "",
          "type": "string"
        }
      ],
      "stateMutability": "view",
      "type": "function"
    },
    {
      "inputs": [
        {
          "internalType": "uint256",
          "name": "tokenId",
          "type": "uint256"
        }
      ],
      "name": "getApproved",
      "outputs": [
        {
          "internalType": "address",
          "name": "",
          "type": "address"
        }
      ],
      "stateMutability": "view",
      "type": "function"
    },
    {
      "inputs": [
        {
          "internalType": "uint256",
          "name": "_tokenId",
          "type": "uint256"
        }
      ],
      "name": "getBunnyId",
      "outputs": [
        {
          "internalType": "uint8",
          "name": "",
          "type": "uint8"
        }
      ],
      "stateMutability": "view",
      "type": "function"
    },
    {
      "inputs": [
        {
          "internalType": "uint256[]",
          "name": "_tokenArray",
          "type": "uint256[]"
        }
      ],
      "name": "getBunnyIdsByTokenIds",
      "outputs": [
        {
          "internalType": "uint256[]",
          "name": "",
          "type": "uint256[]"
        }
      ],
      "stateMutability": "view",
      "type": "function"
    },
    {
      "inputs": [],
      "name": "getRemainingIloSaleSupply",
      "outputs": [
        {
          "internalType": "uint256",
          "name": "",
          "type": "uint256"
        }
      ],
      "stateMutability": "view",
      "type": "function"
    },
    {
      "inputs": [],
      "name": "getRemainingPublicSaleSupply",
      "outputs": [
        {
          "internalType": "uint256",
          "name": "",
          "type": "uint256"
        }
      ],
      "stateMutability": "view",
      "type": "function"
    },
    {
      "inputs": [],
      "name": "getRemainingSupply",
      "outputs": [
        {
          "internalType": "uint256",
          "name": "",
          "type": "uint256"
        }
      ],
      "stateMutability": "view",
      "type": "function"
    },
    {
      "inputs": [],
      "name": "getRemainingWhilelistSaleSupply",
      "outputs": [
        {
          "internalType": "uint256",
          "name": "",
          "type": "uint256"
        }
      ],
      "stateMutability": "view",
      "type": "function"
    },
    {
      "inputs": [
        {
          "internalType": "address",
          "name": "",
          "type": "address"
        }
      ],
      "name": "ilo",
      "outputs": [
        {
          "internalType": "bool",
          "name": "",
          "type": "bool"
        }
      ],
      "stateMutability": "view",
      "type": "function"
    },
    {
      "inputs": [],
      "name": "iloSaleAmountMinted",
      "outputs": [
        {
          "internalType": "uint256",
          "name": "",
          "type": "uint256"
        }
      ],
      "stateMutability": "view",
      "type": "function"
    },
    {
      "inputs": [],
      "name": "iloSalePrice",
      "outputs": [
        {
          "internalType": "uint256",
          "name": "",
          "type": "uint256"
        }
      ],
      "stateMutability": "view",
      "type": "function"
    },
    {
      "inputs": [],
      "name": "iloSaleTokenPrice",
      "outputs": [
        {
          "internalType": "uint256",
          "name": "",
          "type": "uint256"
        }
      ],
      "stateMutability": "view",
      "type": "function"
    },
    {
      "inputs": [
        {
          "internalType": "address",
          "name": "owner",
          "type": "address"
        },
        {
          "internalType": "address",
          "name": "operator",
          "type": "address"
        }
      ],
      "name": "isApprovedForAll",
      "outputs": [
        {
          "internalType": "bool",
          "name": "",
          "type": "bool"
        }
      ],
      "stateMutability": "view",
      "type": "function"
    },
    {
      "inputs": [
        {
          "internalType": "address",
          "name": "_addresses",
          "type": "address"
        }
      ],
      "name": "isIlo",
      "outputs": [
        {
          "internalType": "bool",
          "name": "",
          "type": "bool"
        }
      ],
      "stateMutability": "view",
      "type": "function"
    },
    {
      "inputs": [],
      "name": "isSaleStart",
      "outputs": [
        {
          "internalType": "bool",
          "name": "",
          "type": "bool"
        }
      ],
      "stateMutability": "view",
      "type": "function"
    },
    {
      "inputs": [
        {
          "internalType": "address",
          "name": "_addresses",
          "type": "address"
        }
      ],
      "name": "isWhitelist",
      "outputs": [
        {
          "internalType": "bool",
          "name": "",
          "type": "bool"
        }
      ],
      "stateMutability": "view",
      "type": "function"
    },
    {
      "inputs": [
        {
          "internalType": "uint256",
          "name": "mintQuantity",
          "type": "uint256"
        }
      ],
      "name": "mint",
      "outputs": [],
      "stateMutability": "payable",
      "type": "function"
    },
    {
      "inputs": [],
      "name": "mintByERC20Token",
      "outputs": [
        {
          "internalType": "bool",
          "name": "",
          "type": "bool"
        }
      ],
      "stateMutability": "view",
      "type": "function"
    },
    {
      "inputs": [
        {
          "internalType": "uint256",
          "name": "mintQuantity",
          "type": "uint256"
        }
      ],
      "name": "mintILO",
      "outputs": [],
      "stateMutability": "payable",
      "type": "function"
    },
    {
      "inputs": [
        {
          "internalType": "uint256",
          "name": "mintQuantity",
          "type": "uint256"
        }
      ],
      "name": "mintWhitelist",
      "outputs": [],
      "stateMutability": "payable",
      "type": "function"
    },
    {
      "inputs": [],
      "name": "name",
      "outputs": [
        {
          "internalType": "string",
          "name": "",
          "type": "string"
        }
      ],
      "stateMutability": "view",
      "type": "function"
    },
    {
      "inputs": [],
      "name": "owner",
      "outputs": [
        {
          "internalType": "address",
          "name": "",
          "type": "address"
        }
      ],
      "stateMutability": "view",
      "type": "function"
    },
    {
      "inputs": [
        {
          "internalType": "uint256",
          "name": "tokenId",
          "type": "uint256"
        }
      ],
      "name": "ownerOf",
      "outputs": [
        {
          "internalType": "address",
          "name": "",
          "type": "address"
        }
      ],
      "stateMutability": "view",
      "type": "function"
    },
    {
      "inputs": [],
      "name": "paused",
      "outputs": [
        {
          "internalType": "bool",
          "name": "",
          "type": "bool"
        }
      ],
      "stateMutability": "view",
      "type": "function"
    },
    {
      "inputs": [],
      "name": "publicSaleAmountMinted",
      "outputs": [
        {
          "internalType": "uint256",
          "name": "",
          "type": "uint256"
        }
      ],
      "stateMutability": "view",
      "type": "function"
    },
    {
      "inputs": [],
      "name": "publicSalePrice",
      "outputs": [
        {
          "internalType": "uint256",
          "name": "",
          "type": "uint256"
        }
      ],
      "stateMutability": "view",
      "type": "function"
    },
    {
      "inputs": [],
      "name": "publicSaleTokenPrice",
      "outputs": [
        {
          "internalType": "uint256",
          "name": "",
          "type": "uint256"
        }
      ],
      "stateMutability": "view",
      "type": "function"
    },
    {
      "inputs": [],
      "name": "renounceOwnership",
      "outputs": [],
      "stateMutability": "nonpayable",
      "type": "function"
    },
    {
      "inputs": [
        {
          "internalType": "address",
          "name": "from",
          "type": "address"
        },
        {
          "internalType": "address",
          "name": "to",
          "type": "address"
        },
        {
          "internalType": "uint256",
          "name": "tokenId",
          "type": "uint256"
        }
      ],
      "name": "safeTransferFrom",
      "outputs": [],
      "stateMutability": "nonpayable",
      "type": "function"
    },
    {
      "inputs": [
        {
          "internalType": "address",
          "name": "from",
          "type": "address"
        },
        {
          "internalType": "address",
          "name": "to",
          "type": "address"
        },
        {
          "internalType": "uint256",
          "name": "tokenId",
          "type": "uint256"
        },
        {
          "internalType": "bytes",
          "name": "_data",
          "type": "bytes"
        }
      ],
      "name": "safeTransferFrom",
      "outputs": [],
      "stateMutability": "nonpayable",
      "type": "function"
    },
    {
      "inputs": [],
      "name": "saleActive",
      "outputs": [
        {
          "internalType": "bool",
          "name": "",
          "type": "bool"
        }
      ],
      "stateMutability": "view",
      "type": "function"
    },
    {
      "inputs": [],
      "name": "saleStartTime",
      "outputs": [
        {
          "internalType": "uint256",
          "name": "",
          "type": "uint256"
        }
      ],
      "stateMutability": "view",
      "type": "function"
    },
    {
      "inputs": [
        {
          "internalType": "address",
          "name": "operator",
          "type": "address"
        },
        {
          "internalType": "bool",
          "name": "approved",
          "type": "bool"
        }
      ],
      "name": "setApprovalForAll",
      "outputs": [],
      "stateMutability": "nonpayable",
      "type": "function"
    },
    {
      "inputs": [
        {
          "internalType": "string",
          "name": "_uri",
          "type": "string"
        }
      ],
      "name": "setBaseURI",
      "outputs": [],
      "stateMutability": "nonpayable",
      "type": "function"
    },
    {
      "inputs": [
        {
          "internalType": "address[]",
          "name": "_addresses",
          "type": "address[]"
        },
        {
          "internalType": "bool",
          "name": "_ilo",
          "type": "bool"
        }
      ],
      "name": "setBatchIlo",
      "outputs": [],
      "stateMutability": "nonpayable",
      "type": "function"
    },
    {
      "inputs": [
        {
          "internalType": "address[]",
          "name": "_addresses",
          "type": "address[]"
        },
        {
          "internalType": "bool",
          "name": "_whitelist",
          "type": "bool"
        }
      ],
      "name": "setBatchWhitelist",
      "outputs": [],
      "stateMutability": "nonpayable",
      "type": "function"
    },
    {
      "inputs": [
        {
          "internalType": "address",
          "name": "_address",
          "type": "address"
        },
        {
          "internalType": "bool",
          "name": "_ilo",
          "type": "bool"
        }
      ],
      "name": "setIlo",
      "outputs": [],
      "stateMutability": "nonpayable",
      "type": "function"
    },
    {
      "inputs": [
        {
          "internalType": "uint256",
          "name": "_price",
          "type": "uint256"
        }
      ],
      "name": "setIloSalePrice",
      "outputs": [],
      "stateMutability": "nonpayable",
      "type": "function"
    },
    {
      "inputs": [
        {
          "internalType": "uint256",
          "name": "_price",
          "type": "uint256"
        }
      ],
      "name": "setPublicSalePrice",
      "outputs": [],
      "stateMutability": "nonpayable",
      "type": "function"
    },
    {
      "inputs": [
        {
          "internalType": "uint256",
          "name": "_time",
          "type": "uint256"
        }
      ],
      "name": "setSaleStartTime",
      "outputs": [],
      "stateMutability": "nonpayable",
      "type": "function"
    },
    {
      "inputs": [
        {
          "internalType": "address",
          "name": "newTokenContract",
          "type": "address"
        }
      ],
      "name": "setTokenContract",
      "outputs": [],
      "stateMutability": "nonpayable",
      "type": "function"
    },
    {
      "inputs": [
        {
          "internalType": "address",
          "name": "_address",
          "type": "address"
        },
        {
          "internalType": "bool",
          "name": "_whitelist",
          "type": "bool"
        }
      ],
      "name": "setWhitelist",
      "outputs": [],
      "stateMutability": "nonpayable",
      "type": "function"
    },
    {
      "inputs": [
        {
          "internalType": "uint256",
          "name": "_price",
          "type": "uint256"
        }
      ],
      "name": "setWhitelistSalePrice",
      "outputs": [],
      "stateMutability": "nonpayable",
      "type": "function"
    },
    {
      "inputs": [
        {
          "internalType": "uint256",
          "name": "_publicSalePrice",
          "type": "uint256"
        },
        {
          "internalType": "uint256",
          "name": "_whitelistSalePrice",
          "type": "uint256"
        },
        {
          "internalType": "uint256",
          "name": "_iloSalePrice",
          "type": "uint256"
        },
        {
          "internalType": "uint256",
          "name": "_publicSaleTokenPrice",
          "type": "uint256"
        },
        {
          "internalType": "uint256",
          "name": "_whitelistSaleTokenPrice",
          "type": "uint256"
        },
        {
          "internalType": "uint256",
          "name": "_iloSaleTokenPrice",
          "type": "uint256"
        },
        {
          "internalType": "uint256",
          "name": "_saleStartTime",
          "type": "uint256"
        },
        {
          "internalType": "bool",
          "name": "_mintByERC20Token",
          "type": "bool"
        }
      ],
      "name": "startSales",
      "outputs": [],
      "stateMutability": "nonpayable",
      "type": "function"
    },
    {
      "inputs": [],
      "name": "stopSales",
      "outputs": [],
      "stateMutability": "nonpayable",
      "type": "function"
    },
    {
      "inputs": [
        {
          "internalType": "bytes4",
          "name": "interfaceId",
          "type": "bytes4"
        }
      ],
      "name": "supportsInterface",
      "outputs": [
        {
          "internalType": "bool",
          "name": "",
          "type": "bool"
        }
      ],
      "stateMutability": "view",
      "type": "function"
    },
    {
      "inputs": [],
      "name": "symbol",
      "outputs": [
        {
          "internalType": "string",
          "name": "",
          "type": "string"
        }
      ],
      "stateMutability": "view",
      "type": "function"
    },
    {
      "inputs": [],
      "name": "toggleMintByERC20Token",
      "outputs": [],
      "stateMutability": "nonpayable",
      "type": "function"
    },
    {
      "inputs": [],
      "name": "toggleSaleStatus",
      "outputs": [],
      "stateMutability": "nonpayable",
      "type": "function"
    },
    {
      "inputs": [
        {
          "internalType": "uint256",
          "name": "index",
          "type": "uint256"
        }
      ],
      "name": "tokenByIndex",
      "outputs": [
        {
          "internalType": "uint256",
          "name": "",
          "type": "uint256"
        }
      ],
      "stateMutability": "view",
      "type": "function"
    },
    {
      "inputs": [],
      "name": "tokenContract",
      "outputs": [
        {
          "internalType": "address",
          "name": "",
          "type": "address"
        }
      ],
      "stateMutability": "view",
      "type": "function"
    },
    {
      "inputs": [
        {
          "internalType": "address",
          "name": "owner",
          "type": "address"
        },
        {
          "internalType": "uint256",
          "name": "index",
          "type": "uint256"
        }
      ],
      "name": "tokenOfOwnerByIndex",
      "outputs": [
        {
          "internalType": "uint256",
          "name": "",
          "type": "uint256"
        }
      ],
      "stateMutability": "view",
      "type": "function"
    },
    {
      "inputs": [
        {
          "internalType": "uint256",
          "name": "tokenId",
          "type": "uint256"
        }
      ],
      "name": "tokenURI",
      "outputs": [
        {
          "internalType": "string",
          "name": "",
          "type": "string"
        }
      ],
      "stateMutability": "view",
      "type": "function"
    },
    {
      "inputs": [],
      "name": "totalSupply",
      "outputs": [
        {
          "internalType": "uint256",
          "name": "",
          "type": "uint256"
        }
      ],
      "stateMutability": "view",
      "type": "function"
    },
    {
      "inputs": [
        {
          "internalType": "address",
          "name": "from",
          "type": "address"
        },
        {
          "internalType": "address",
          "name": "to",
          "type": "address"
        },
        {
          "internalType": "uint256",
          "name": "tokenId",
          "type": "uint256"
        }
      ],
      "name": "transferFrom",
      "outputs": [],
      "stateMutability": "nonpayable",
      "type": "function"
    },
    {
      "inputs": [
        {
          "internalType": "address",
          "name": "newOwner",
          "type": "address"
        }
      ],
      "name": "transferOwnership",
      "outputs": [],
      "stateMutability": "nonpayable",
      "type": "function"
    },
    {
      "inputs": [
        {
          "internalType": "address",
          "name": "",
          "type": "address"
        }
      ],
      "name": "whitelist",
      "outputs": [
        {
          "internalType": "bool",
          "name": "",
          "type": "bool"
        }
      ],
      "stateMutability": "view",
      "type": "function"
    },
    {
      "inputs": [],
      "name": "whitelistSaleAmountMinted",
      "outputs": [
        {
          "internalType": "uint256",
          "name": "",
          "type": "uint256"
        }
      ],
      "stateMutability": "view",
      "type": "function"
    },
    {
      "inputs": [],
      "name": "whitelistSalePrice",
      "outputs": [
        {
          "internalType": "uint256",
          "name": "",
          "type": "uint256"
        }
      ],
      "stateMutability": "view",
      "type": "function"
    },
    {
      "inputs": [],
      "name": "whitelistSaleTokenPrice",
      "outputs": [
        {
          "internalType": "uint256",
          "name": "",
          "type": "uint256"
        }
      ],
      "stateMutability": "view",
      "type": "function"
    },
    {
      "inputs": [],
      "name": "withdraw",
      "outputs": [],
      "stateMutability": "nonpayable",
      "type": "function"
    }
  ],
  "bytecode": "0x6080604052600e805460ff60a01b191690556658d15e17628000600f81905566470de4df820000601081905560118190556012919091556013819055601455635e0be1006018556019805460ff191690553480156200005d57600080fd5b50604080518082018252601381527f4d64616f334261745374617257617272696f720000000000000000000000000060208083019182528351808501909452600384526242535760e81b908401528151919291620000be9160009162000151565b508051620000d490600190602084019062000151565b5050600a805460ff1916905550620000ec33620000f7565b6001600b5562000233565b600a80546001600160a01b03838116610100818102610100600160a81b031985161790945560405193909204169182907f8be0079c531659141344cd1fd0a4f28419497f9722a3daafe3b4186f6b6457e090600090a35050565b8280546200015f90620001f7565b90600052602060002090601f016020900481019282620001835760008555620001ce565b82601f106200019e57805160ff1916838001178555620001ce565b82800160010185558215620001ce579182015b82811115620001ce578251825591602001919060010190620001b1565b50620001dc929150620001e0565b5090565b5b80821115620001dc5760008155600101620001e1565b600181811c908216806200020c57607f821691505b6020821081036200022d57634e487b7160e01b600052602260045260246000fd5b50919050565b613c1080620002436000396000f3fe6080604052600436106104265760003560e01c8063715018a611610229578063ba29fa321161012e578063cda4f2cd116100b6578063e985e9c51161007a578063e985e9c514610bbb578063ed0c240e1461089c578063f2fde38b14610c04578063fad45acd14610c24578063fe55e20114610c5457600080fd5b8063cda4f2cd14610b18578063ce69538c14610b2d578063d35dd46214610b66578063ddb9e17614610b86578063e4b7fb7314610ba657600080fd5b8063c683630d116100fd578063c683630d14610a52578063c72c688314610a8b578063c7e0467014610acd578063c87b56dd14610ae3578063c9c986fd14610b0357600080fd5b8063ba29fa32146109f0578063bbcd5bbe14610a06578063c117325014610a26578063c657214314610a3c57600080fd5b80639b19251a116101b1578063a3ce5d5211610180578063a3ce5d521461096c578063a82feb321461098c578063aa46a400146109a2578063afb7e45b146109b9578063b88d4fde146109d057600080fd5b80639b19251a146108f35780639b6860c814610923578063a0712d6814610939578063a22cb4651461094c57600080fd5b806387eb3236116101f857806387eb32361461077e5780638da5cb5b146108795780638df1bf261461089c57806391949723146108b157806395d89b41146108de57600080fd5b8063715018a61461082e57806375a0f26e14610843578063777678211461077e578063791a25191461085957600080fd5b806342842e0e1161032f57806356cba008116102b757806368428a1b1161028657806368428a1b146107b45780636a4235cf146107ce5780636c0360eb146107e45780636dd99102146107f957806370a082311461080e57600080fd5b806356cba008146107515780635c975abb146107665780635f7832221461077e5780636352211e1461079457600080fd5b80634f6ccce7116102fe5780634f6ccce7146106b1578063525f8a5c146106d157806353d6fd59146106f157806355a373d61461071157806355f804b31461073157600080fd5b806342842e0e1461064957806342d4b47e146106695780634618163e1461067e5780634660a2041461069157600080fd5b806318160ddd116103b25780632f745c59116103815780632f745c59146105bd57806332cb6b0c146105dd5780633480870f146105f35780633515fbdb146106145780633ccfd60b1461063457600080fd5b806318160ddd1461055d5780631cbaee2d146105725780632186ea061461058857806323b872dd1461059d57600080fd5b8063095ea7b3116103f9578063095ea7b3146104d157806309dca6e0146104f15780630f262d861461051457806311039c971461052a578063168684f21461054a57600080fd5b806301ffc9a71461042b578063049c5c491461046057806306fdde0314610477578063081812fc14610499575b600080fd5b34801561043757600080fd5b5061044b610446366004613365565b610c6a565b60405190151581526020015b60405180910390f35b34801561046c57600080fd5b50610475610c95565b005b34801561048357600080fd5b5061048c610ce2565b60405161045791906133da565b3480156104a557600080fd5b506104b96104b43660046133ed565b610d74565b6040516001600160a01b039091168152602001610457565b3480156104dd57600080fd5b506104756104ec366004613422565b610e09565b3480156104fd57600080fd5b50610506610f1e565b604051908152602001610457565b34801561052057600080fd5b5061050660145481565b34801561053657600080fd5b506104756105453660046133ed565b610f35565b6104756105583660046133ed565b610f6a565b34801561056957600080fd5b50600854610506565b34801561057e57600080fd5b5061050660185481565b34801561059457600080fd5b50610506611248565b3480156105a957600080fd5b506104756105b836600461344c565b61125a565b3480156105c957600080fd5b506105066105d8366004613422565b61128b565b3480156105e957600080fd5b50610506612ee081565b3480156105ff57600080fd5b50600e5461044b90600160a01b900460ff1681565b34801561062057600080fd5b5061047561062f3660046133ed565b611321565b34801561064057600080fd5b50610475611356565b34801561065557600080fd5b5061047561066436600461344c565b611473565b34801561067557600080fd5b5061044b61148e565b61047561068c3660046133ed565b6114c3565b34801561069d57600080fd5b506104756106ac366004613496565b61178c565b3480156106bd57600080fd5b506105066106cc3660046133ed565b6117e7565b3480156106dd57600080fd5b506104756106ec3660046133ed565b61187a565b3480156106fd57600080fd5b5061047561070c366004613496565b6118af565b34801561071d57600080fd5b50600e546104b9906001600160a01b031681565b34801561073d57600080fd5b5061047561074c3660046134cd565b61190a565b34801561075d57600080fd5b50610475611946565b34801561077257600080fd5b50600a5460ff1661044b565b34801561078a57600080fd5b506105066103e881565b3480156107a057600080fd5b506104b96107af3660046133ed565b6119b5565b3480156107c057600080fd5b5060195461044b9060ff1681565b3480156107da57600080fd5b50610506601b5481565b3480156107f057600080fd5b5061048c611a2c565b34801561080557600080fd5b50610506600581565b34801561081a57600080fd5b5061050661082936600461353f565b611aba565b34801561083a57600080fd5b50610475611b41565b34801561084f57600080fd5b5061050660115481565b34801561086557600080fd5b506104756108743660046133ed565b611b7d565b34801561088557600080fd5b50600a5461010090046001600160a01b03166104b9565b3480156108a857600080fd5b50610506600181565b3480156108bd57600080fd5b506108d16108cc3660046135a1565b611bb2565b6040516104579190613647565b3480156108ea57600080fd5b5061048c611c73565b3480156108ff57600080fd5b5061044b61090e36600461353f565b601d6020526000908152604090205460ff1681565b34801561092f57600080fd5b50610506600f5481565b6104756109473660046133ed565b611c82565b34801561095857600080fd5b50610475610967366004613496565b611f2d565b34801561097857600080fd5b5061047561098736600461368b565b611f3c565b34801561099857600080fd5b50610506601a5481565b3480156109ae57600080fd5b50600c546105069081565b3480156109c557600080fd5b506105066201518081565b3480156109dc57600080fd5b506104756109eb366004613711565b611fe3565b3480156109fc57600080fd5b50610506601c5481565b348015610a1257600080fd5b50610475610a2136600461353f565b612015565b348015610a3257600080fd5b5061050660105481565b348015610a4857600080fd5b5061050661271081565b348015610a5e57600080fd5b5061044b610a6d36600461353f565b6001600160a01b03166000908152601d602052604090205460ff1690565b348015610a9757600080fd5b50610abb610aa63660046133ed565b6000908152601f602052604090205460ff1690565b60405160ff9091168152602001610457565b348015610ad957600080fd5b5061050660125481565b348015610aef57600080fd5b5061048c610afe3660046133ed565b612067565b348015610b0f57600080fd5b50610475612142565b348015610b2457600080fd5b50610506612193565b348015610b3957600080fd5b5061044b610b4836600461353f565b6001600160a01b03166000908152601e602052604090205460ff1690565b348015610b7257600080fd5b50610475610b8136600461368b565b6121a5565b348015610b9257600080fd5b50610475610ba13660046137d1565b612246565b348015610bb257600080fd5b506105066122fa565b348015610bc757600080fd5b5061044b610bd636600461383b565b6001600160a01b03918216600090815260056020908152604080832093909416825291909152205460ff1690565b348015610c1057600080fd5b50610475610c1f36600461353f565b612311565b348015610c3057600080fd5b5061044b610c3f36600461353f565b601e6020526000908152604090205460ff1681565b348015610c6057600080fd5b5061050660135481565b60006001600160e01b0319821663780e9d6360e01b1480610c8f5750610c8f826123b2565b92915050565b600a546001600160a01b03610100909104163314610cce5760405162461bcd60e51b8152600401610cc59061386e565b60405180910390fd5b6019805460ff19811660ff90911615179055565b606060008054610cf1906138a3565b80601f0160208091040260200160405190810160405280929190818152602001828054610d1d906138a3565b8015610d6a5780601f10610d3f57610100808354040283529160200191610d6a565b820191906000526020600020905b815481529060010190602001808311610d4d57829003601f168201915b5050505050905090565b6000818152600260205260408120546001600160a01b0316610ded5760405162461bcd60e51b815260206004820152602c60248201527f4552433732313a20617070726f76656420717565727920666f72206e6f6e657860448201526b34b9ba32b73a103a37b5b2b760a11b6064820152608401610cc5565b506000908152600460205260409020546001600160a01b031690565b6000610e14826119b5565b9050806001600160a01b0316836001600160a01b031603610e815760405162461bcd60e51b815260206004820152602160248201527f4552433732313a20617070726f76616c20746f2063757272656e74206f776e656044820152603960f91b6064820152608401610cc5565b336001600160a01b0382161480610e9d5750610e9d8133610bd6565b610f0f5760405162461bcd60e51b815260206004820152603860248201527f4552433732313a20617070726f76652063616c6c6572206973206e6f74206f7760448201527f6e6572206e6f7220617070726f76656420666f7220616c6c00000000000000006064820152608401610cc5565b610f198383612402565b505050565b6000601b546103e8610f3091906138f3565b905090565b600a546001600160a01b03610100909104163314610f655760405162461bcd60e51b8152600401610cc59061386e565b601155565b6002600b5403610f8c5760405162461bcd60e51b8152600401610cc59061390a565b6002600b55600a5460ff1615610fb45760405162461bcd60e51b8152600401610cc590613941565b336000908152601e602052604090205460ff166110035760405162461bcd60e51b815260206004820152600d60248201526c1058d8d95cdcc819195b9a5959609a1b6044820152606401610cc5565b3233146110225760405162461bcd60e51b8152600401610cc59061396b565b60195460ff1615801561103a575061103861148e565b155b156110585760405163468ecd4560e01b815260040160405180910390fd5b6103e881601c5461106991906139a2565b111561108857604051630fa3cc4f60e21b815260040160405180910390fd5b336000908152601760205260409020546001906110a69083906139a2565b11156110c55760405163b9c01de160e01b815260040160405180910390fd5b600e54600160a01b900460ff161561119c57600e546040516370a0823160e01b81523360048201526001600160a01b03909116906370a0823190602401602060405180830381865afa15801561111f573d6000803e3d6000fd5b505050506040513d601f19601f8201168201806040525081019061114391906139ba565b8160145461115191906139d3565b111561117057604051637f1250b760e01b815260040160405180910390fd5b61119733308360145461118391906139d3565b600e546001600160a01b0316929190612470565b6111ca565b34601154826111ab91906139d3565b11156111ca5760405163311c9fd160e01b815260040160405180910390fd5b80601c60008282546111dc91906139a2565b909155505033600090815260176020526040812080548392906112009084906139a2565b90915550611210905081336124db565b601154604051829033907f25b428dfde728ccfaddad7e29e4ac23c24ed7fd1a6e3e3f91894a9a073f5dfff90600090a4506001600b55565b6000601c546103e8610f3091906138f3565b6112643382612535565b6112805760405162461bcd60e51b8152600401610cc5906139f2565b610f1983838361262c565b600061129683611aba565b82106112f85760405162461bcd60e51b815260206004820152602b60248201527f455243373231456e756d657261626c653a206f776e657220696e646578206f7560448201526a74206f6620626f756e647360a81b6064820152608401610cc5565b506001600160a01b03919091166000908152600660209081526040808320938352929052205490565b600a546001600160a01b036101009091041633146113515760405162461bcd60e51b8152600401610cc59061386e565b601055565b600a546001600160a01b036101009091041633146113865760405162461bcd60e51b8152600401610cc59061386e565b6002600b54036113a85760405162461bcd60e51b8152600401610cc59061390a565b6002600b554780156113cf57600a546113cf9061010090046001600160a01b0316826127d3565b600e546040516370a0823160e01b81523060048201526001600160a01b03909116906370a0823190602401602060405180830381865afa158015611417573d6000803e3d6000fd5b505050506040513d601f19601f8201168201806040525081019061143b91906139ba565b9050801561146b57600a5461146b9061010090046001600160a01b0316600e546001600160a01b031690836128ec565b506001600b55565b610f1983838360405180602001604052806000815250611fe3565b6000806018541180156114a357506018544210155b8015610f305750620151806018546114bb91906139a2565b421115905090565b6002600b54036114e55760405162461bcd60e51b8152600401610cc59061390a565b6002600b55600a5460ff161561150d5760405162461bcd60e51b8152600401610cc590613941565b336000908152601d602052604090205460ff1661155c5760405162461bcd60e51b815260206004820152600d60248201526c1058d8d95cdcc819195b9a5959609a1b6044820152606401610cc5565b32331461157b5760405162461bcd60e51b8152600401610cc59061396b565b60195460ff16158015611593575061159161148e565b155b156115b0576040516221ef4560e61b815260040160405180910390fd5b6103e881601b546115c191906139a2565b11156115e057604051639d54a44b60e01b815260040160405180910390fd5b336000908152601660205260409020546001906115fe9083906139a2565b111561161d5760405163a24f080d60e01b815260040160405180910390fd5b600e54600160a01b900460ff16156116e057600e546040516370a0823160e01b81523360048201526001600160a01b03909116906370a0823190602401602060405180830381865afa158015611677573d6000803e3d6000fd5b505050506040513d601f19601f8201168201806040525081019061169b91906139ba565b816013546116a991906139d3565b11156116c857604051637f1250b760e01b815260040160405180910390fd5b6116db33308360135461118391906139d3565b61170e565b34601054826116ef91906139d3565b111561170e5760405163311c9fd160e01b815260040160405180910390fd5b80601b600082825461172091906139a2565b909155505033600090815260166020526040812080548392906117449084906139a2565b90915550611754905081336124db565b601054604051829033907f25b428dfde728ccfaddad7e29e4ac23c24ed7fd1a6e3e3f91894a9a073f5dfff90600090a4506001600b55565b600a546001600160a01b036101009091041633146117bc5760405162461bcd60e51b8152600401610cc59061386e565b6001600160a01b03919091166000908152601e60205260409020805460ff1916911515919091179055565b60006117f260085490565b82106118555760405162461bcd60e51b815260206004820152602c60248201527f455243373231456e756d657261626c653a20676c6f62616c20696e646578206f60448201526b7574206f6620626f756e647360a01b6064820152608401610cc5565b6008828154811061186857611868613a43565b90600052602060002001549050919050565b600a546001600160a01b036101009091041633146118aa5760405162461bcd60e51b8152600401610cc59061386e565b601855565b600a546001600160a01b036101009091041633146118df5760405162461bcd60e51b8152600401610cc59061386e565b6001600160a01b03919091166000908152601d60205260409020805460ff1916911515919091179055565b600a546001600160a01b0361010090910416331461193a5760405162461bcd60e51b8152600401610cc59061386e565b610f19600d83836132b6565b600a546001600160a01b036101009091041633146119765760405162461bcd60e51b8152600401610cc59061386e565b6019805460ff191690556040514281527f56655f82da4ec63a2422438f68ada91d71652380192a6e44a3a7f27e0dd9e10c9060200160405180910390a1565b6000818152600260205260408120546001600160a01b031680610c8f5760405162461bcd60e51b815260206004820152602960248201527f4552433732313a206f776e657220717565727920666f72206e6f6e657869737460448201526832b73a103a37b5b2b760b91b6064820152608401610cc5565b600d8054611a39906138a3565b80601f0160208091040260200160405190810160405280929190818152602001828054611a65906138a3565b8015611ab25780601f10611a8757610100808354040283529160200191611ab2565b820191906000526020600020905b815481529060010190602001808311611a9557829003601f168201915b505050505081565b60006001600160a01b038216611b255760405162461bcd60e51b815260206004820152602a60248201527f4552433732313a2062616c616e636520717565727920666f7220746865207a65604482015269726f206164647265737360b01b6064820152608401610cc5565b506001600160a01b031660009081526003602052604090205490565b600a546001600160a01b03610100909104163314611b715760405162461bcd60e51b8152600401610cc59061386e565b611b7b600061291c565b565b600a546001600160a01b03610100909104163314611bad5760405162461bcd60e51b8152600401610cc59061386e565b600f55565b60606000825167ffffffffffffffff811115611bd057611bd061355a565b604051908082528060200260200182016040528015611bf9578160200160208202803683370190505b50905060005b8351811015611c6c57611c3a848281518110611c1d57611c1d613a43565b60200260200101516000908152601f602052604090205460ff1690565b60ff16828281518110611c4f57611c4f613a43565b602090810291909101015280611c6481613a59565b915050611bff565b5092915050565b606060018054610cf1906138a3565b6002600b5403611ca45760405162461bcd60e51b8152600401610cc59061390a565b6002600b55600a5460ff1615611ccc5760405162461bcd60e51b8152600401610cc590613941565b323314611ceb5760405162461bcd60e51b8152600401610cc59061396b565b60195460ff16158015611d035750611d0161148e565b155b15611d2157604051633167946760e21b815260040160405180910390fd5b61271081601a54611d3291906139a2565b1115611d51576040516326cf5db960e21b815260040160405180910390fd5b6103e881601a54611d6291906139a2565b1115611d815760405163f7c164df60e01b815260040160405180910390fd5b33600090815260156020526040902054600590611d9f9083906139a2565b1115611dbe5760405163feba24d960e01b815260040160405180910390fd5b600e54600160a01b900460ff1615611e8157600e546040516370a0823160e01b81523360048201526001600160a01b03909116906370a0823190602401602060405180830381865afa158015611e18573d6000803e3d6000fd5b505050506040513d601f19601f82011682018060405250810190611e3c91906139ba565b81601254611e4a91906139d3565b1115611e6957604051637f1250b760e01b815260040160405180910390fd5b611e7c33308360125461118391906139d3565b611eaf565b34600f5482611e9091906139d3565b1115611eaf5760405163311c9fd160e01b815260040160405180910390fd5b80601a6000828254611ec191906139a2565b90915550503360009081526015602052604081208054839290611ee59084906139a2565b90915550611ef5905081336124db565b600f54604051829033907f25b428dfde728ccfaddad7e29e4ac23c24ed7fd1a6e3e3f91894a9a073f5dfff90600090a4506001600b55565b611f38338383612976565b5050565b600a546001600160a01b03610100909104163314611f6c5760405162461bcd60e51b8152600401610cc59061386e565b60005b82811015611fdd5781601e6000868685818110611f8e57611f8e613a43565b9050602002016020810190611fa3919061353f565b6001600160a01b031681526020810191909152604001600020805460ff191691151591909117905580611fd581613a59565b915050611f6f565b50505050565b611fed3383612535565b6120095760405162461bcd60e51b8152600401610cc5906139f2565b611fdd84848484612a44565b600a546001600160a01b036101009091041633146120455760405162461bcd60e51b8152600401610cc59061386e565b600e80546001600160a01b0319166001600160a01b0392909216919091179055565b6000818152600260205260409020546060906001600160a01b03166120e65760405162461bcd60e51b815260206004820152602f60248201527f4552433732314d657461646174613a2055524920717565727920666f72206e6f60448201526e3732bc34b9ba32b73a103a37b5b2b760891b6064820152608401610cc5565b60006120f0612a77565b90506000815111612110576040518060200160405280600081525061213b565b8061211a84612a86565b60405160200161212b929190613a72565b6040516020818303038152906040525b9392505050565b600a546001600160a01b036101009091041633146121725760405162461bcd60e51b8152600401610cc59061386e565b600e805460ff60a01b198116600160a01b9182900460ff1615909102179055565b6000601a54612710610f3091906138f3565b600a546001600160a01b036101009091041633146121d55760405162461bcd60e51b8152600401610cc59061386e565b60005b82811015611fdd5781601d60008686858181106121f7576121f7613a43565b905060200201602081019061220c919061353f565b6001600160a01b031681526020810191909152604001600020805460ff19169115159190911790558061223e81613a59565b9150506121d8565b600a546001600160a01b036101009091041633146122765760405162461bcd60e51b8152600401610cc59061386e565b600f889055601087905560118690556012859055601384905560148390556018829055600e805460ff60a01b1916600160a01b831515021790556019805460ff191660011790556040518281527feeae71454a2a58ac8d7c3a2ac3db1f29f81cbd0024aae4292a55139dd9d3560a9060200160405180910390a15050505050505050565b6000612305600c5490565b610f3090612ee06138f3565b600a546001600160a01b036101009091041633146123415760405162461bcd60e51b8152600401610cc59061386e565b6001600160a01b0381166123a65760405162461bcd60e51b815260206004820152602660248201527f4f776e61626c653a206e6577206f776e657220697320746865207a65726f206160448201526564647265737360d01b6064820152608401610cc5565b6123af8161291c565b50565b60006001600160e01b031982166380ac58cd60e01b14806123e357506001600160e01b03198216635b5e139f60e01b145b80610c8f57506301ffc9a760e01b6001600160e01b0319831614610c8f565b600081815260046020526040902080546001600160a01b0319166001600160a01b0384169081179091558190612437826119b5565b6001600160a01b03167f8c5be1e5ebec7d5bd14f71427d1e84f3dd0314c0f7b2291e5b200ac8c7c3b92560405160405180910390a45050565b6040516001600160a01b0380851660248301528316604482015260648101829052611fdd9085906323b872dd60e01b906084015b60408051601f198184030181529190526020810180516001600160e01b03166001600160e01b031990931692909217909152612b87565b60005b82811015610f19576124f4600c80546001019055565b60006124ff600c5490565b6000818152601f60205260409020805460ff1916600117905590506125248382612c59565b5061252e81613a59565b90506124de565b6000818152600260205260408120546001600160a01b03166125ae5760405162461bcd60e51b815260206004820152602c60248201527f4552433732313a206f70657261746f7220717565727920666f72206e6f6e657860448201526b34b9ba32b73a103a37b5b2b760a11b6064820152608401610cc5565b60006125b9836119b5565b9050806001600160a01b0316846001600160a01b0316148061260057506001600160a01b0380821660009081526005602090815260408083209388168352929052205460ff165b806126245750836001600160a01b031661261984610d74565b6001600160a01b0316145b949350505050565b826001600160a01b031661263f826119b5565b6001600160a01b0316146126a35760405162461bcd60e51b815260206004820152602560248201527f4552433732313a207472616e736665722066726f6d20696e636f72726563742060448201526437bbb732b960d91b6064820152608401610cc5565b6001600160a01b0382166127055760405162461bcd60e51b8152602060048201526024808201527f4552433732313a207472616e7366657220746f20746865207a65726f206164646044820152637265737360e01b6064820152608401610cc5565b612710838383612c73565b61271b600082612402565b6001600160a01b03831660009081526003602052604081208054600192906127449084906138f3565b90915550506001600160a01b03821660009081526003602052604081208054600192906127729084906139a2565b909155505060008181526002602052604080822080546001600160a01b0319166001600160a01b0386811691821790925591518493918716917fddf252ad1be2c89b69c2b068fc378daa952ba7f163c4a11628f55a4df523b3ef91a4505050565b804710156128235760405162461bcd60e51b815260206004820152601d60248201527f416464726573733a20696e73756666696369656e742062616c616e63650000006044820152606401610cc5565b6000826001600160a01b03168260405160006040518083038185875af1925050503d8060008114612870576040519150601f19603f3d011682016040523d82523d6000602084013e612875565b606091505b5050905080610f195760405162461bcd60e51b815260206004820152603a60248201527f416464726573733a20756e61626c6520746f2073656e642076616c75652c207260448201527f6563697069656e74206d617920686176652072657665727465640000000000006064820152608401610cc5565b6040516001600160a01b038316602482015260448101829052610f1990849063a9059cbb60e01b906064016124a4565b600a80546001600160a01b03838116610100818102610100600160a81b031985161790945560405193909204169182907f8be0079c531659141344cd1fd0a4f28419497f9722a3daafe3b4186f6b6457e090600090a35050565b816001600160a01b0316836001600160a01b0316036129d75760405162461bcd60e51b815260206004820152601960248201527f4552433732313a20617070726f766520746f2063616c6c6572000000000000006044820152606401610cc5565b6001600160a01b03838116600081815260056020908152604080832094871680845294825291829020805460ff191686151590811790915591519182527f17307eab39ab6107e8899845ad3d59bd9653f200f220920489ca2b5937696c31910160405180910390a3505050565b612a4f84848461262c565b612a5b84848484612d2b565b611fdd5760405162461bcd60e51b8152600401610cc590613aa1565b6060600d8054610cf1906138a3565b606081600003612aad5750506040805180820190915260018152600360fc1b602082015290565b8160005b8115612ad75780612ac181613a59565b9150612ad09050600a83613b09565b9150612ab1565b60008167ffffffffffffffff811115612af257612af261355a565b6040519080825280601f01601f191660200182016040528015612b1c576020820181803683370190505b5090505b841561262457612b316001836138f3565b9150612b3e600a86613b1d565b612b499060306139a2565b60f81b818381518110612b5e57612b5e613a43565b60200101906001600160f81b031916908160001a905350612b80600a86613b09565b9450612b20565b6000612bdc826040518060400160405280602081526020017f5361666545524332303a206c6f772d6c6576656c2063616c6c206661696c6564815250856001600160a01b0316612e2c9092919063ffffffff16565b805190915015610f195780806020019051810190612bfa9190613b31565b610f195760405162461bcd60e51b815260206004820152602a60248201527f5361666545524332303a204552433230206f7065726174696f6e20646964206e6044820152691bdd081cdd58d8d9595960b21b6064820152608401610cc5565b611f38828260405180602001604052806000815250612e3b565b6001600160a01b038316612cce57612cc981600880546000838152600960205260408120829055600182018355919091527ff3f7a9fe364faab93b216da50a3214154f22a0a2b415b23a84c8169e8b636ee30155565b612cf1565b816001600160a01b0316836001600160a01b031614612cf157612cf18382612e6e565b6001600160a01b038216612d0857610f1981612f0b565b826001600160a01b0316826001600160a01b031614610f1957610f198282612fba565b60006001600160a01b0384163b15612e2157604051630a85bd0160e11b81526001600160a01b0385169063150b7a0290612d6f903390899088908890600401613b4e565b6020604051808303816000875af1925050508015612daa575060408051601f3d908101601f19168201909252612da791810190613b8b565b60015b612e07573d808015612dd8576040519150601f19603f3d011682016040523d82523d6000602084013e612ddd565b606091505b508051600003612dff5760405162461bcd60e51b8152600401610cc590613aa1565b805181602001fd5b6001600160e01b031916630a85bd0160e11b149050612624565b506001949350505050565b60606126248484600085612ffe565b612e45838361312f565b612e526000848484612d2b565b610f195760405162461bcd60e51b8152600401610cc590613aa1565b60006001612e7b84611aba565b612e8591906138f3565b600083815260076020526040902054909150808214612ed8576001600160a01b03841660009081526006602090815260408083208584528252808320548484528184208190558352600790915290208190555b5060009182526007602090815260408084208490556001600160a01b039094168352600681528383209183525290812055565b600854600090612f1d906001906138f3565b60008381526009602052604081205460088054939450909284908110612f4557612f45613a43565b906000526020600020015490508060088381548110612f6657612f66613a43565b6000918252602080832090910192909255828152600990915260408082208490558582528120556008805480612f9e57612f9e613ba8565b6001900381819060005260206000200160009055905550505050565b6000612fc583611aba565b6001600160a01b039093166000908152600660209081526040808320868452825280832085905593825260079052919091209190915550565b60608247101561305f5760405162461bcd60e51b815260206004820152602660248201527f416464726573733a20696e73756666696369656e742062616c616e636520666f6044820152651c8818d85b1b60d21b6064820152608401610cc5565b6001600160a01b0385163b6130b65760405162461bcd60e51b815260206004820152601d60248201527f416464726573733a2063616c6c20746f206e6f6e2d636f6e74726163740000006044820152606401610cc5565b600080866001600160a01b031685876040516130d29190613bbe565b60006040518083038185875af1925050503d806000811461310f576040519150601f19603f3d011682016040523d82523d6000602084013e613114565b606091505b509150915061312482828661327d565b979650505050505050565b6001600160a01b0382166131855760405162461bcd60e51b815260206004820181905260248201527f4552433732313a206d696e7420746f20746865207a65726f20616464726573736044820152606401610cc5565b6000818152600260205260409020546001600160a01b0316156131ea5760405162461bcd60e51b815260206004820152601c60248201527f4552433732313a20746f6b656e20616c7265616479206d696e746564000000006044820152606401610cc5565b6131f660008383612c73565b6001600160a01b038216600090815260036020526040812080546001929061321f9084906139a2565b909155505060008181526002602052604080822080546001600160a01b0319166001600160a01b03861690811790915590518392907fddf252ad1be2c89b69c2b068fc378daa952ba7f163c4a11628f55a4df523b3ef908290a45050565b6060831561328c57508161213b565b82511561329c5782518084602001fd5b8160405162461bcd60e51b8152600401610cc591906133da565b8280546132c2906138a3565b90600052602060002090601f0160209004810192826132e4576000855561332a565b82601f106132fd5782800160ff1982351617855561332a565b8280016001018555821561332a579182015b8281111561332a57823582559160200191906001019061330f565b5061333692915061333a565b5090565b5b80821115613336576000815560010161333b565b6001600160e01b0319811681146123af57600080fd5b60006020828403121561337757600080fd5b813561213b8161334f565b60005b8381101561339d578181015183820152602001613385565b83811115611fdd5750506000910152565b600081518084526133c6816020860160208601613382565b601f01601f19169290920160200192915050565b60208152600061213b60208301846133ae565b6000602082840312156133ff57600080fd5b5035919050565b80356001600160a01b038116811461341d57600080fd5b919050565b6000806040838503121561343557600080fd5b61343e83613406565b946020939093013593505050565b60008060006060848603121561346157600080fd5b61346a84613406565b925061347860208501613406565b9150604084013590509250925092565b80151581146123af57600080fd5b600080604083850312156134a957600080fd5b6134b283613406565b915060208301356134c281613488565b809150509250929050565b600080602083850312156134e057600080fd5b823567ffffffffffffffff808211156134f857600080fd5b818501915085601f83011261350c57600080fd5b81358181111561351b57600080fd5b86602082850101111561352d57600080fd5b60209290920196919550909350505050565b60006020828403121561355157600080fd5b61213b82613406565b634e487b7160e01b600052604160045260246000fd5b604051601f8201601f1916810167ffffffffffffffff811182821017156135995761359961355a565b604052919050565b600060208083850312156135b457600080fd5b823567ffffffffffffffff808211156135cc57600080fd5b818501915085601f8301126135e057600080fd5b8135818111156135f2576135f261355a565b8060051b9150613603848301613570565b818152918301840191848101908884111561361d57600080fd5b938501935b8385101561363b57843582529385019390850190613622565b98975050505050505050565b6020808252825182820181905260009190848201906040850190845b8181101561367f57835183529284019291840191600101613663565b50909695505050505050565b6000806000604084860312156136a057600080fd5b833567ffffffffffffffff808211156136b857600080fd5b818601915086601f8301126136cc57600080fd5b8135818111156136db57600080fd5b8760208260051b85010111156136f057600080fd5b6020928301955093505084013561370681613488565b809150509250925092565b6000806000806080858703121561372757600080fd5b61373085613406565b9350602061373f818701613406565b935060408601359250606086013567ffffffffffffffff8082111561376357600080fd5b818801915088601f83011261377757600080fd5b8135818111156137895761378961355a565b61379b601f8201601f19168501613570565b915080825289848285010111156137b157600080fd5b808484018584013760008482840101525080935050505092959194509250565b600080600080600080600080610100898b0312156137ee57600080fd5b883597506020890135965060408901359550606089013594506080890135935060a0890135925060c0890135915060e089013561382a81613488565b809150509295985092959890939650565b6000806040838503121561384e57600080fd5b61385783613406565b915061386560208401613406565b90509250929050565b6020808252818101527f4f776e61626c653a2063616c6c6572206973206e6f7420746865206f776e6572604082015260600190565b600181811c908216806138b757607f821691505b6020821081036138d757634e487b7160e01b600052602260045260246000fd5b50919050565b634e487b7160e01b600052601160045260246000fd5b600082821015613905576139056138dd565b500390565b6020808252601f908201527f5265656e7472616e637947756172643a207265656e7472616e742063616c6c00604082015260600190565b60208082526010908201526f14185d5cd8589b194e881c185d5cd95960821b604082015260600190565b6020808252601e908201527f5468652063616c6c657220697320616e6f7468657220636f6e74726163740000604082015260600190565b600082198211156139b5576139b56138dd565b500190565b6000602082840312156139cc57600080fd5b5051919050565b60008160001904831182151516156139ed576139ed6138dd565b500290565b60208082526031908201527f4552433732313a207472616e736665722063616c6c6572206973206e6f74206f6040820152701ddb995c881b9bdc88185c1c1c9bdd9959607a1b606082015260800190565b634e487b7160e01b600052603260045260246000fd5b600060018201613a6b57613a6b6138dd565b5060010190565b60008351613a84818460208801613382565b835190830190613a98818360208801613382565b01949350505050565b60208082526032908201527f4552433732313a207472616e7366657220746f206e6f6e20455243373231526560408201527131b2b4bb32b91034b6b83632b6b2b73a32b960711b606082015260800190565b634e487b7160e01b600052601260045260246000fd5b600082613b1857613b18613af3565b500490565b600082613b2c57613b2c613af3565b500690565b600060208284031215613b4357600080fd5b815161213b81613488565b6001600160a01b0385811682528416602082015260408101839052608060608201819052600090613b81908301846133ae565b9695505050505050565b600060208284031215613b9d57600080fd5b815161213b8161334f565b634e487b7160e01b600052603160045260246000fd5b60008251613bd0818460208701613382565b919091019291505056fea2646970667358221220532ea7b8d8f6e44f9c492c8bea5d9075a9df869103a9852e3781ad6b0c8abad464736f6c634300080d0033",
  "linkReferences": {},
  "deployedLinkReferences": {}
}